{
  "address": "0xD537Fa993cC018d87324d0ab703Ef6F18B1C9071",
  "abi": [
    {
      "anonymous": false,
      "inputs": [
        {
          "indexed": false,
          "internalType": "address",
          "name": "previousAdmin",
          "type": "address"
        },
        {
          "indexed": false,
          "internalType": "address",
          "name": "newAdmin",
          "type": "address"
        }
      ],
      "name": "AdminChanged",
      "type": "event"
    },
    {
      "anonymous": false,
      "inputs": [
        {
          "indexed": true,
          "internalType": "address",
          "name": "beacon",
          "type": "address"
        }
      ],
      "name": "BeaconUpgraded",
      "type": "event"
    },
    {
      "anonymous": false,
      "inputs": [
        {
          "indexed": false,
          "internalType": "uint256",
          "name": "artistId",
          "type": "uint256"
        },
        {
          "indexed": false,
          "internalType": "string",
          "name": "name",
          "type": "string"
        },
        {
          "indexed": false,
          "internalType": "string",
          "name": "symbol",
          "type": "string"
        },
        {
          "indexed": true,
          "internalType": "address",
          "name": "artistAddress",
          "type": "address"
        }
      ],
      "name": "CreatedArtist",
      "type": "event"
    },
    {
      "anonymous": false,
      "inputs": [
        {
          "indexed": true,
          "internalType": "address",
          "name": "previousOwner",
          "type": "address"
        },
        {
          "indexed": true,
          "internalType": "address",
          "name": "newOwner",
          "type": "address"
        }
      ],
      "name": "OwnershipTransferred",
      "type": "event"
    },
    {
      "anonymous": false,
      "inputs": [
        {
          "indexed": true,
          "internalType": "address",
          "name": "implementation",
          "type": "address"
        }
      ],
      "name": "Upgraded",
      "type": "event"
    },
    {
      "inputs": [],
      "name": "DOMAIN_SEPARATOR",
      "outputs": [
        {
          "internalType": "bytes32",
          "name": "",
          "type": "bytes32"
        }
      ],
      "stateMutability": "view",
      "type": "function"
    },
    {
      "inputs": [],
      "name": "MINTER_TYPEHASH",
      "outputs": [
        {
          "internalType": "bytes32",
          "name": "",
          "type": "bytes32"
        }
      ],
      "stateMutability": "view",
      "type": "function"
    },
    {
      "inputs": [],
      "name": "admin",
      "outputs": [
        {
          "internalType": "address",
          "name": "",
          "type": "address"
        }
      ],
      "stateMutability": "view",
      "type": "function"
    },
    {
      "inputs": [
        {
          "internalType": "uint256",
          "name": "",
          "type": "uint256"
        }
      ],
      "name": "artistContracts",
      "outputs": [
        {
          "internalType": "address",
          "name": "",
          "type": "address"
        }
      ],
      "stateMutability": "view",
      "type": "function"
    },
    {
      "inputs": [],
      "name": "beaconAddress",
      "outputs": [
        {
          "internalType": "address",
          "name": "",
          "type": "address"
        }
      ],
      "stateMutability": "view",
      "type": "function"
    },
    {
      "inputs": [
        {
          "internalType": "bytes",
          "name": "signature",
          "type": "bytes"
        },
        {
          "internalType": "string",
          "name": "_name",
          "type": "string"
        },
        {
          "internalType": "string",
          "name": "_symbol",
          "type": "string"
        },
        {
          "internalType": "string",
          "name": "_baseURI",
          "type": "string"
        }
      ],
      "name": "createArtist",
      "outputs": [
        {
          "internalType": "address",
          "name": "",
          "type": "address"
        }
      ],
      "stateMutability": "nonpayable",
      "type": "function"
    },
    {
      "inputs": [
        {
          "internalType": "bytes",
          "name": "signature",
          "type": "bytes"
        }
      ],
      "name": "getSigner",
      "outputs": [
        {
          "internalType": "address",
          "name": "",
          "type": "address"
        }
      ],
      "stateMutability": "view",
      "type": "function"
    },
    {
      "inputs": [],
      "name": "initialize",
      "outputs": [],
      "stateMutability": "nonpayable",
      "type": "function"
    },
    {
      "inputs": [],
      "name": "owner",
      "outputs": [
        {
          "internalType": "address",
          "name": "",
          "type": "address"
        }
      ],
      "stateMutability": "view",
      "type": "function"
    },
    {
      "inputs": [],
      "name": "renounceOwnership",
      "outputs": [],
      "stateMutability": "nonpayable",
      "type": "function"
    },
    {
      "inputs": [
        {
          "internalType": "address",
          "name": "_newAdmin",
          "type": "address"
        }
      ],
      "name": "setAdmin",
      "outputs": [],
      "stateMutability": "nonpayable",
      "type": "function"
    },
    {
      "inputs": [
        {
          "internalType": "address",
          "name": "newOwner",
          "type": "address"
        }
      ],
      "name": "transferOwnership",
      "outputs": [],
      "stateMutability": "nonpayable",
      "type": "function"
    },
    {
      "inputs": [
        {
          "internalType": "address",
          "name": "newImplementation",
          "type": "address"
        }
      ],
      "name": "upgradeTo",
      "outputs": [],
      "stateMutability": "nonpayable",
      "type": "function"
    },
    {
      "inputs": [
        {
          "internalType": "address",
          "name": "newImplementation",
          "type": "address"
        },
        {
          "internalType": "bytes",
          "name": "data",
          "type": "bytes"
        }
      ],
      "name": "upgradeToAndCall",
      "outputs": [],
      "stateMutability": "payable",
      "type": "function"
    }
  ],
  "transactionHash": "0x5ebd6b6e6cdde07005967d877bfe63d8f4fdab99df2c78f8df6df0f93b27a47a",
  "args": [],
  "solcInputHash": "57244fa64f7e22d76d736bb233e223c5",
  "bytecode": "0x60a06040523060601b60805234801561001757600080fd5b5060805160601c61532361004b600039600081816104d101528181610514015281816105a601526105e901526153236000f3fe608060405260043610620000ef5760003560e01c80638129fc1c1162000089578063e6adabfd1162000060578063e6adabfd1462000257578063f2fde38b146200027c578063f851a44014620002a1578063fa4d280c14620002c357600080fd5b80638129fc1c14620001fa5780638da5cb5b1462000212578063b16a43f0146200023257600080fd5b80634f1ef28611620000ca5780634f1ef2861462000184578063704b6c02146200019b578063715018a614620001c05780637e2ec6d014620001d857600080fd5b8063233654eb14620000f45780633644e51514620001365780633659cfe6146200015d575b600080fd5b3480156200010157600080fd5b50620001196200011336600462001529565b620002f9565b6040516001600160a01b0390911681526020015b60405180910390f35b3480156200014357600080fd5b506200014e60cb5481565b6040519081526020016200012d565b3480156200016a57600080fd5b50620001826200017c3660046200145c565b620004c6565b005b62000182620001953660046200147a565b6200059b565b348015620001a857600080fd5b5062000182620001ba3660046200145c565b62000661565b348015620001cd57600080fd5b5062000182620006ed565b348015620001e557600080fd5b5060cc5462000119906001600160a01b031681565b3480156200020757600080fd5b506200018262000728565b3480156200021f57600080fd5b506097546001600160a01b031662000119565b3480156200023f57600080fd5b506200011962000251366004620015e9565b620008f9565b3480156200026457600080fd5b506200011962000276366004620014e3565b62000924565b3480156200028957600080fd5b50620001826200029b3660046200145c565b62000a5a565b348015620002ae57600080fd5b5060ca5462000119906001600160a01b031681565b348015620002d057600080fd5b506200014e7f5925e35aebbeb7738ae3e97ad24e3b4cc09001c8668d81f3365213a0ec1e85b281565b60ca546000906001600160a01b031662000314878762000924565b6001600160a01b031614620003705760405162461bcd60e51b815260206004820152601f60248201527f696e76616c696420617574686f72697a6174696f6e207369676e61747572650060448201526064015b60405180910390fd5b60cc546000906001600160a01b031663055fe41d60e51b336200039260c95490565b888888604051602401620003ab9594939291906200167d565b60408051601f198184030181529181526020820180516001600160e01b03166001600160e01b0319909416939093179092529051620003ea9062001330565b620003f79291906200164f565b604051809103906000f08015801562000414573d6000803e3d6000fd5b5060cd80546001810182556000919091527f83978b4c69c48dd978ab43fe30f077615294f938fb7f936d9eb340e51ea7db2e0180546001600160a01b0383166001600160a01b031990911681179091559091507f23748b43b77f98380e738976c6324996908ffc1989994dd3c68631c87a65a7c06200049260c95490565b8787604051620004a5939291906200180c565b60405180910390a2620004bc60c980546001019055565b9695505050505050565b306001600160a01b037f0000000000000000000000000000000000000000000000000000000000000000161415620005125760405162461bcd60e51b81526004016200036790620016f1565b7f00000000000000000000000000000000000000000000000000000000000000006001600160a01b03166200054662000af9565b6001600160a01b0316146200056f5760405162461bcd60e51b815260040162000367906200173d565b6200057a8162000b27565b60408051600080825260208201909252620005989183919062000b54565b50565b306001600160a01b037f0000000000000000000000000000000000000000000000000000000000000000161415620005e75760405162461bcd60e51b81526004016200036790620016f1565b7f00000000000000000000000000000000000000000000000000000000000000006001600160a01b03166200061b62000af9565b6001600160a01b031614620006445760405162461bcd60e51b815260040162000367906200173d565b6200064f8262000b27565b6200065d8282600162000b54565b5050565b6097546001600160a01b031633148062000685575060ca546001600160a01b031633145b620006cb5760405162461bcd60e51b815260206004820152601560248201527434b73b30b634b21030baba3437b934bd30ba34b7b760591b604482015260640162000367565b60ca80546001600160a01b0319166001600160a01b0392909216919091179055565b6097546001600160a01b031633146200071a5760405162461bcd60e51b81526004016200036790620017d7565b62000726600062000cb0565b565b600054610100900460ff168062000742575060005460ff16155b620007615760405162461bcd60e51b8152600401620003679062001789565b600054610100900460ff1615801562000784576000805461ffff19166101011790555b6200078e62000d02565b60ca80546001600160a01b03191633179055604051620007dd907fc49a8e302e3e5d6753b2bb3dbc3c28deba5e16e2572a92aef568063c963e3465904690602001918252602082015260400190565b60408051601f1981840301815290829052805160209091012060cb5560009062000807906200133e565b604051809103906000f08015801562000824573d6000803e3d6000fd5b5060405162000833906200134c565b6001600160a01b039091168152602001604051809103906000f08015801562000860573d6000803e3d6000fd5b5060405163f2fde38b60e01b81523360048201529091506001600160a01b0382169063f2fde38b90602401600060405180830381600087803b158015620008a657600080fd5b505af1158015620008bb573d6000803e3d6000fd5b505060cc80546001600160a01b0319166001600160a01b038516179055505060c98054600101905550801562000598576000805461ff001916905550565b60cd81815481106200090a57600080fd5b6000918252602090912001546001600160a01b0316905081565b60ca546000906001600160a01b0316620009795760405162461bcd60e51b81526020600482015260156024820152741dda1a5d195b1a5cdd081b9bdd08195b98589b1959605a1b604482015260640162000367565b60cb54604080517f5925e35aebbeb7738ae3e97ad24e3b4cc09001c8668d81f3365213a0ec1e85b2602082015233918101919091526000919060600160405160208183030381529060405280519060200120604051602001620009f392919061190160f01b81526002810192909252602282015260420190565b604051602081830303815290604052805190602001209050600062000a5185858080601f016020809104026020016040519081016040528093929190818152602001838380828437600092019190915250869392505062000d7e9050565b95945050505050565b6097546001600160a01b0316331462000a875760405162461bcd60e51b81526004016200036790620017d7565b6001600160a01b03811662000aee5760405162461bcd60e51b815260206004820152602660248201527f4f776e61626c653a206e6577206f776e657220697320746865207a65726f206160448201526564647265737360d01b606482015260840162000367565b620005988162000cb0565b7f360894a13ba1a3210667c828492db98dca3e2076cc3735a920a3ca505d382bbc546001600160a01b031690565b6097546001600160a01b03163314620005985760405162461bcd60e51b81526004016200036790620017d7565b600062000b6062000af9565b905062000b6d8462000da6565b60008351118062000b7b5750815b1562000b8f5762000b8d848462000e4d565b505b7f4910fdfa16fed3260ed0e7147f7cc6da11a60208b5b9406d12a635614ffd9143805460ff1662000ca957805460ff191660011781556040516001600160a01b038316602482015262000c1190869060440160408051601f198184030181529190526020810180516001600160e01b0316631b2ce7f360e11b17905262000e4d565b50805460ff1916815562000c2462000af9565b6001600160a01b0316826001600160a01b03161462000c9e5760405162461bcd60e51b815260206004820152602f60248201527f45524331393637557067726164653a207570677261646520627265616b73206660448201526e75727468657220757067726164657360881b606482015260840162000367565b62000ca98562000f38565b5050505050565b609780546001600160a01b038381166001600160a01b0319831681179093556040519116919082907f8be0079c531659141344cd1fd0a4f28419497f9722a3daafe3b4186f6b6457e090600090a35050565b600054610100900460ff168062000d1c575060005460ff16155b62000d3b5760405162461bcd60e51b8152600401620003679062001789565b600054610100900460ff1615801562000d5e576000805461ffff19166101011790555b62000d693362000cb0565b801562000598576000805461ff001916905550565b600080600062000d8f858562000f7a565b9150915062000d9e8162000ff2565b509392505050565b803b62000e0c5760405162461bcd60e51b815260206004820152602d60248201527f455243313936373a206e657720696d706c656d656e746174696f6e206973206e60448201526c1bdd08184818dbdb9d1c9858dd609a1b606482015260840162000367565b7f360894a13ba1a3210667c828492db98dca3e2076cc3735a920a3ca505d382bbc80546001600160a01b0319166001600160a01b0392909216919091179055565b6060823b62000eae5760405162461bcd60e51b815260206004820152602660248201527f416464726573733a2064656c65676174652063616c6c20746f206e6f6e2d636f6044820152651b9d1c9858dd60d21b606482015260840162000367565b600080846001600160a01b03168460405162000ecb919062001631565b600060405180830381855af49150503d806000811462000f08576040519150601f19603f3d011682016040523d82523d6000602084013e62000f0d565b606091505b509150915062000a518282604051806060016040528060278152602001620052c760279139620011c5565b62000f438162000da6565b6040516001600160a01b038216907fbc7cd75a20ee27fd9adebab32041f755214dbc6bffa90cc0225b39da2e5c2d3b90600090a250565b60008082516041141562000fb55760208301516040840151606085015160001a62000fa8878285856200120a565b9450945050505062000feb565b82516040141562000fe3576020830151604084015162000fd7868383620012ff565b93509350505062000feb565b506000905060025b9250929050565b60008160048111156200100957620010096200186e565b1415620010135750565b60018160048111156200102a576200102a6200186e565b14156200107a5760405162461bcd60e51b815260206004820152601860248201527f45434453413a20696e76616c6964207369676e61747572650000000000000000604482015260640162000367565b60028160048111156200109157620010916200186e565b1415620010e15760405162461bcd60e51b815260206004820152601f60248201527f45434453413a20696e76616c6964207369676e6174757265206c656e67746800604482015260640162000367565b6003816004811115620010f857620010f86200186e565b1415620011535760405162461bcd60e51b815260206004820152602260248201527f45434453413a20696e76616c6964207369676e6174757265202773272076616c604482015261756560f01b606482015260840162000367565b60048160048111156200116a576200116a6200186e565b1415620005985760405162461bcd60e51b815260206004820152602260248201527f45434453413a20696e76616c6964207369676e6174757265202776272076616c604482015261756560f01b606482015260840162000367565b60608315620011d657508162001203565b825115620011e75782518084602001fd5b8160405162461bcd60e51b8152600401620003679190620016dc565b9392505050565b6000807f7fffffffffffffffffffffffffffffff5d576e7357a4501ddfe92f46681b20a0831115620012435750600090506003620012f6565b8460ff16601b141580156200125c57508460ff16601c14155b156200126f5750600090506004620012f6565b6040805160008082526020820180845289905260ff881692820192909252606081018690526080810185905260019060a0016020604051602081039080840390855afa158015620012c4573d6000803e3d6000fd5b5050604051601f1901519150506001600160a01b038116620012ef57600060019250925050620012f6565b9150600090505b94509492505050565b6000806001600160ff1b03831660ff84901c601b0162001322878288856200120a565b935093505050935093915050565b610993806200189b83390190565b612b8b806200222e83390190565b61050e8062004db983390190565b600067ffffffffffffffff8084111562001378576200137862001884565b604051601f8501601f19908116603f01168101908282118183101715620013a357620013a362001884565b81604052809350858152868686011115620013bd57600080fd5b858560208301376000602087830101525050509392505050565b80356001600160a01b0381168114620013ef57600080fd5b919050565b60008083601f8401126200140757600080fd5b50813567ffffffffffffffff8111156200142057600080fd5b60208301915083602082850101111562000feb57600080fd5b600082601f8301126200144b57600080fd5b62001203838335602085016200135a565b6000602082840312156200146f57600080fd5b6200120382620013d7565b600080604083850312156200148e57600080fd5b6200149983620013d7565b9150602083013567ffffffffffffffff811115620014b657600080fd5b8301601f81018513620014c857600080fd5b620014d9858235602084016200135a565b9150509250929050565b60008060208385031215620014f757600080fd5b823567ffffffffffffffff8111156200150f57600080fd5b6200151d85828601620013f4565b90969095509350505050565b6000806000806000608086880312156200154257600080fd5b853567ffffffffffffffff808211156200155b57600080fd5b6200156989838a01620013f4565b909750955060208801359150808211156200158357600080fd5b6200159189838a0162001439565b94506040880135915080821115620015a857600080fd5b620015b689838a0162001439565b93506060880135915080821115620015cd57600080fd5b50620015dc8882890162001439565b9150509295509295909350565b600060208284031215620015fc57600080fd5b5035919050565b600081518084526200161d8160208601602086016200183b565b601f01601f19169290920160200192915050565b60008251620016458184602087016200183b565b9190910192915050565b6001600160a01b0383168152604060208201819052600090620016759083018462001603565b949350505050565b60018060a01b038616815284602082015260a060408201526000620016a660a083018662001603565b8281036060840152620016ba818662001603565b90508281036080840152620016d0818562001603565b98975050505050505050565b60208152600062001203602083018462001603565b6020808252602c908201527f46756e6374696f6e206d7573742062652063616c6c6564207468726f7567682060408201526b19195b1959d85d1958d85b1b60a21b606082015260800190565b6020808252602c908201527f46756e6374696f6e206d7573742062652063616c6c6564207468726f7567682060408201526b6163746976652070726f787960a01b606082015260800190565b6020808252602e908201527f496e697469616c697a61626c653a20636f6e747261637420697320616c72656160408201526d191e481a5b9a5d1a585b1a5e995960921b606082015260800190565b6020808252818101527f4f776e61626c653a2063616c6c6572206973206e6f7420746865206f776e6572604082015260600190565b83815260606020820152600062001827606083018562001603565b8281036040840152620004bc818562001603565b60005b83811015620018585781810151838201526020016200183e565b8381111562001868576000848401525b50505050565b634e487b7160e01b600052602160045260246000fd5b634e487b7160e01b600052604160045260246000fdfe608060405260405161099338038061099383398101604081905261002291610470565b61004d60017fa3f0ad74e5423aebfd80d3ef4346578335a9a72aeaee59ff6cb3582b35133d5161057f565b60008051602061094c83398151915214610069576100696105d0565b6100758282600061007c565b50506105fc565b61008583610156565b6040516001600160a01b038416907f1cf3b03a6cf19fa2baba4df148e9dcabedea7f8a5c07840e207e5c089be95d3e90600090a26000825111806100c65750805b156101515761014f836001600160a01b0316635c60da1b6040518163ffffffff1660e01b815260040160206040518083038186803b15801561010757600080fd5b505afa15801561011b573d6000803e3d6000fd5b505050506040513d601f19601f8201168201806040525081019061013f9190610455565b836102f660201b6100291760201c565b505b505050565b6101698161032260201b6100551760201c565b6101c85760405162461bcd60e51b815260206004820152602560248201527f455243313936373a206e657720626561636f6e206973206e6f74206120636f6e6044820152641d1c9858dd60da1b60648201526084015b60405180910390fd5b61024b816001600160a01b0316635c60da1b6040518163ffffffff1660e01b815260040160206040518083038186803b15801561020457600080fd5b505afa158015610218573d6000803e3d6000fd5b505050506040513d601f19601f8201168201806040525081019061023c9190610455565b61032260201b6100551760201c565b6102b05760405162461bcd60e51b815260206004820152603060248201527f455243313936373a20626561636f6e20696d706c656d656e746174696f6e206960448201526f1cc81b9bdd08184818dbdb9d1c9858dd60821b60648201526084016101bf565b806102d560008051602061094c83398151915260001b61032860201b61005b1760201c565b80546001600160a01b0319166001600160a01b039290921691909117905550565b606061031b838360405180606001604052806027815260200161096c6027913961032b565b9392505050565b3b151590565b90565b6060833b61038a5760405162461bcd60e51b815260206004820152602660248201527f416464726573733a2064656c65676174652063616c6c20746f206e6f6e2d636f6044820152651b9d1c9858dd60d21b60648201526084016101bf565b600080856001600160a01b0316856040516103a59190610530565b600060405180830381855af49150503d80600081146103e0576040519150601f19603f3d011682016040523d82523d6000602084013e6103e5565b606091505b5090925090506103f6828286610400565b9695505050505050565b6060831561040f57508161031b565b82511561041f5782518084602001fd5b8160405162461bcd60e51b81526004016101bf919061054c565b80516001600160a01b038116811461045057600080fd5b919050565b60006020828403121561046757600080fd5b61031b82610439565b6000806040838503121561048357600080fd5b61048c83610439565b60208401519092506001600160401b03808211156104a957600080fd5b818501915085601f8301126104bd57600080fd5b8151818111156104cf576104cf6105e6565b604051601f8201601f19908116603f011681019083821181831017156104f7576104f76105e6565b8160405282815288602084870101111561051057600080fd5b6105218360208301602088016105a4565b80955050505050509250929050565b600082516105428184602087016105a4565b9190910192915050565b602081526000825180602084015261056b8160408501602087016105a4565b601f01601f19169190910160400192915050565b60008282101561059f57634e487b7160e01b600052601160045260246000fd5b500390565b60005b838110156105bf5781810151838201526020016105a7565b8381111561014f5750506000910152565b634e487b7160e01b600052600160045260246000fd5b634e487b7160e01b600052604160045260246000fd5b6103418061060b6000396000f3fe60806040523661001357610011610017565b005b6100115b61002761002261005e565b610106565b565b606061004e83836040518060600160405280602781526020016102e56027913961012a565b9392505050565b3b151590565b90565b60006100917fa3f0ad74e5423aebfd80d3ef4346578335a9a72aeaee59ff6cb3582b35133d50546001600160a01b031690565b6001600160a01b0316635c60da1b6040518163ffffffff1660e01b815260040160206040518083038186803b1580156100c957600080fd5b505afa1580156100dd573d6000803e3d6000fd5b505050506040513d601f19601f82011682018060405250810190610101919061023c565b905090565b3660008037600080366000845af43d6000803e808015610125573d6000f35b3d6000fd5b6060833b61018e5760405162461bcd60e51b815260206004820152602660248201527f416464726573733a2064656c65676174652063616c6c20746f206e6f6e2d636f6044820152651b9d1c9858dd60d21b60648201526084015b60405180910390fd5b600080856001600160a01b0316856040516101a99190610265565b600060405180830381855af49150503d80600081146101e4576040519150601f19603f3d011682016040523d82523d6000602084013e6101e9565b606091505b50915091506101f9828286610203565b9695505050505050565b6060831561021257508161004e565b8251156102225782518084602001fd5b8160405162461bcd60e51b81526004016101859190610281565b60006020828403121561024e57600080fd5b81516001600160a01b038116811461004e57600080fd5b600082516102778184602087016102b4565b9190910192915050565b60208152600082518060208401526102a08160408501602087016102b4565b601f01601f19169190910160400192915050565b60005b838110156102cf5781810151838201526020016102b7565b838111156102de576000848401525b5050505056fe416464726573733a206c6f772d6c6576656c2064656c65676174652063616c6c206661696c6564a26469706673582212200fee2b60774ce14c52afeb1eb5ae300740f133d4d6ca1a0559f31ad67c61993464736f6c63430008070033a3f0ad74e5423aebfd80d3ef4346578335a9a72aeaee59ff6cb3582b35133d50416464726573733a206c6f772d6c6576656c2064656c65676174652063616c6c206661696c6564608060405234801561001057600080fd5b50612b6b806100206000396000f3fe6080604052600436106101d85760003560e01c8063715018a611610102578063bd8616ec11610095578063e8a3d48511610064578063e8a3d4851461064f578063e985e9c514610664578063f2fde38b146106ad578063fbab9e04146106cd57600080fd5b8063bd8616ec146105c2578063c87b56dd146105d5578063d3bb0528146105f5578063e1a3d5731461062257600080fd5b8063a22cb465116100d1578063a22cb46514610542578063abfc83a014610562578063b88d4fde14610582578063bb314ca1146105a257600080fd5b8063715018a6146104cd57806374e79189146104e25780638da5cb5b1461050f57806395d89b411461052d57600080fd5b806323b872dd1161017a57806342842e0e1161014957806342842e0e14610440578063602787ed146104605780636352211e1461048d57806370a08231146104ad57600080fd5b806323b872dd146102fe578063279c806e1461031e5780632a55205a146103e15780633fafef291461042057600080fd5b8063095ea7b3116101b6578063095ea7b31461026c57806313dd29601461028e578063155dd5ee146102bb57806318160ddd146102db57600080fd5b806301ffc9a7146101dd57806306fdde0314610212578063081812fc14610234575b600080fd5b3480156101e957600080fd5b506101fd6101f836600461258d565b6106ed565b60405190151581526020015b60405180910390f35b34801561021e57600080fd5b50610227610718565b604051610209919061285d565b34801561024057600080fd5b5061025461024f3660046125c7565b6107aa565b6040516001600160a01b039091168152602001610209565b34801561027857600080fd5b5061028c6102873660046124bc565b610844565b005b34801561029a57600080fd5b506102ae6102a93660046125c7565b61095a565b60405161020991906127d8565b3480156102c757600080fd5b5061028c6102d63660046125c7565b610a3b565b3480156102e757600080fd5b506102f0610a9b565b604051908152602001610209565b34801561030a57600080fd5b5061028c6103193660046123c8565b610ab7565b34801561032a57600080fd5b506103956103393660046125c7565b60cc602052600090815260409020805460018201546002909201546001600160a01b03909116919063ffffffff808216916401000000008104821691600160401b8204811691600160601b8104821691600160801b9091041687565b604080516001600160a01b039098168852602088019690965263ffffffff94851695870195909552918316606086015282166080850152811660a08401521660c082015260e001610209565b3480156103ed57600080fd5b506104016103fc3660046125e0565b610ae8565b604080516001600160a01b039093168352602083019190915201610209565b34801561042c57600080fd5b5061028c61043b366004612320565b610bb1565b34801561044c57600080fd5b5061028c61045b3660046123c8565b610d9f565b34801561046c57600080fd5b506102f061047b3660046125c7565b60cd6020526000908152604090205481565b34801561049957600080fd5b506102546104a83660046125c7565b610dba565b3480156104b957600080fd5b506102f06104c8366004612303565b610e31565b3480156104d957600080fd5b5061028c610eb8565b3480156104ee57600080fd5b506105026104fd3660046125c7565b610eee565b6040516102099190612825565b34801561051b57600080fd5b506097546001600160a01b0316610254565b34801561053957600080fd5b50610227610fb1565b34801561054e57600080fd5b5061028c61055d366004612489565b610fc0565b34801561056e57600080fd5b5061028c61057d3660046124e8565b610fcb565b34801561058e57600080fd5b5061028c61059d366004612409565b6110b2565b3480156105ae57600080fd5b5061028c6105bd366004612602565b6110ea565b61028c6105d03660046125c7565b61114a565b3480156105e157600080fd5b506102276105f03660046125c7565b611465565b34801561060157600080fd5b506102f06106103660046125c7565b60cf6020526000908152604090205481565b34801561062e57600080fd5b506102f061063d3660046125c7565b60ce6020526000908152604090205481565b34801561065b57600080fd5b50610227611530565b34801561067057600080fd5b506101fd61067f36600461238f565b6001600160a01b039182166000908152606a6020908152604080832093909416825291909152205460ff1690565b3480156106b957600080fd5b5061028c6106c8366004612303565b611558565b3480156106d957600080fd5b5061028c6106e8366004612602565b6115f0565b600063152a902d60e11b6001600160e01b031983161480610712575061071282611650565b92915050565b60606065805461072790612a24565b80601f016020809104026020016040519081016040528092919081815260200182805461075390612a24565b80156107a05780601f10610775576101008083540402835291602001916107a0565b820191906000526020600020905b81548152906001019060200180831161078357829003601f168201915b5050505050905090565b6000818152606760205260408120546001600160a01b03166108285760405162461bcd60e51b815260206004820152602c60248201527f4552433732313a20617070726f76656420717565727920666f72206e6f6e657860448201526b34b9ba32b73a103a37b5b2b760a11b60648201526084015b60405180910390fd5b506000908152606960205260409020546001600160a01b031690565b600061084f82610dba565b9050806001600160a01b0316836001600160a01b031614156108bd5760405162461bcd60e51b815260206004820152602160248201527f4552433732313a20617070726f76616c20746f2063757272656e74206f776e656044820152603960f91b606482015260840161081f565b336001600160a01b03821614806108d957506108d9813361067f565b61094b5760405162461bcd60e51b815260206004820152603860248201527f4552433732313a20617070726f76652063616c6c6572206973206e6f74206f7760448201527f6e6572206e6f7220617070726f76656420666f7220616c6c0000000000000000606482015260840161081f565b61095583836116a0565b505050565b600081815260cc60205260408120600201546060919063ffffffff1667ffffffffffffffff81111561098e5761098e612af4565b6040519080825280602002602001820160405280156109b7578160200160208202803683370190505b509050600060015b60ca54811015610a3257600081815260cd6020526040902054851415610a20576109e881610dba565b8383815181106109fa576109fa612ade565b6001600160a01b039092166020928302919091019091015281610a1c81612a5f565b9250505b80610a2a81612a5f565b9150506109bf565b50909392505050565b600081815260cf602090815260408083205460ce909252822054610a5f91906129e1565b600083815260ce602090815260408083205460cf83528184205560cc909152902054909150610a97906001600160a01b03168261170e565b5050565b60006001610aa860ca5490565b610ab291906129e1565b905090565b610ac1338261181b565b610add5760405162461bcd60e51b815260040161081f90612945565b610955838383611912565b600082815260cc60209081526040808320815160e08101835281546001600160a01b031680825260018301549482019490945260029091015463ffffffff80821693830193909352640100000000810483166060830152600160401b810483166080830152600160601b8104831660a0830152600160801b900490911660c08201528291610b7c5751915060009050610baa565b6080810151815163ffffffff90911690612710610b9983886129c2565b610ba391906129ae565b9350935050505b9250929050565b6097546001600160a01b03163314610bdb5760405162461bcd60e51b815260040161081f90612910565b6040518060e00160405280876001600160a01b03168152602001868152602001600063ffffffff1681526020018563ffffffff1681526020018463ffffffff1681526020018363ffffffff1681526020018263ffffffff1681525060cc6000610c4360cb5490565b81526020808201929092526040908101600020835181546001600160a01b039091166001600160a01b0319909116178155918301516001830155820151600290910180546060840151608085015160a086015160c09096015163ffffffff908116600160801b0263ffffffff60801b19978216600160601b0263ffffffff60601b19938316600160401b02939093166fffffffffffffffff0000000000000000199483166401000000000267ffffffffffffffff1990961692909716919091179390931791909116939093179290921792909216179055610d2360cb5490565b604080516001600160a01b03891681526020810188905263ffffffff8781168284015286811660608301528581166080830152841660a082015290517fb3131d7d301f8caeb40981cffc627b1fdf324b5e4a23845b61c1a6ad2a25f3859181900360c00190a2610d9760cb80546001019055565b505050505050565b610955838383604051806020016040528060008152506110b2565b6000818152606760205260408120546001600160a01b0316806107125760405162461bcd60e51b815260206004820152602960248201527f4552433732313a206f776e657220717565727920666f72206e6f6e657869737460448201526832b73a103a37b5b2b760b91b606482015260840161081f565b60006001600160a01b038216610e9c5760405162461bcd60e51b815260206004820152602a60248201527f4552433732313a2062616c616e636520717565727920666f7220746865207a65604482015269726f206164647265737360b01b606482015260840161081f565b506001600160a01b031660009081526068602052604090205490565b6097546001600160a01b03163314610ee25760405162461bcd60e51b815260040161081f90612910565b610eec6000611ab2565b565b600081815260cc60205260408120600201546060919063ffffffff1667ffffffffffffffff811115610f2257610f22612af4565b604051908082528060200260200182016040528015610f4b578160200160208202803683370190505b509050600060015b60ca54811015610a3257600081815260cd6020526040902054851415610f9f5780838381518110610f8657610f86612ade565b602090810291909101015281610f9b81612a5f565b9250505b80610fa981612a5f565b915050610f53565b60606066805461072790612a24565b610a97338383611b04565b600054610100900460ff1680610fe4575060005460ff16155b6110005760405162461bcd60e51b815260040161081f906128c2565b600054610100900460ff16158015611022576000805461ffff19166101011790555b61102c8484611bd3565b611034611c5a565b61103d86611558565b8161104786611cd5565b6040516020016110589291906126f4565b60405160208183030381529060405260c9908051906020019061107c9291906121b4565b5061108b60ca80546001019055565b61109960cb80546001019055565b8015610d97576000805461ff0019169055505050505050565b6110bc338361181b565b6110d85760405162461bcd60e51b815260040161081f90612945565b6110e484848484611dd3565b50505050565b6097546001600160a01b031633146111145760405162461bcd60e51b815260040161081f90612910565b600091825260cc6020526040909120600201805463ffffffff909216600160801b0263ffffffff60801b19909216919091179055565b600081815260cc6020526040902060020154640100000000900463ffffffff166111af5760405162461bcd60e51b815260206004820152601660248201527511591a5d1a5bdb88191bd95cc81b9bdd08195e1a5cdd60521b604482015260640161081f565b600081815260cc602052604090206002015463ffffffff640100000000820481169116106112295760405162461bcd60e51b815260206004820152602160248201527f546869732065646974696f6e20697320616c726561647920736f6c64206f75746044820152601760f91b606482015260840161081f565b600081815260cc602052604090206001015434101561129c5760405162461bcd60e51b815260206004820152602960248201527f4d7573742073656e6420656e6f75676820746f207075726368617365207468656044820152681032b234ba34b7b71760b91b606482015260840161081f565b600081815260cc602052604090206002015442600160601b90910463ffffffff16106113035760405162461bcd60e51b8152602060048201526016602482015275105d58dd1a5bdb881a185cdb89dd081cdd185c9d195960521b604482015260640161081f565b600081815260cc602052604090206002015442600160801b90910463ffffffff16116113655760405162461bcd60e51b8152602060048201526011602482015270105d58dd1a5bdb881a185cc8195b991959607a1b604482015260640161081f565b6113773361137260ca5490565b611e06565b600081815260ce602052604081208054349290611395908490612996565b9091555050600081815260cc60205260408120600201805463ffffffff16916113bd83612a7a565b91906101000a81548163ffffffff021916908363ffffffff160217905550508060cd60006113ea60ca5490565b81526020810191909152604001600020553361140560ca5490565b600083815260cc602090815260409182902060020154915163ffffffff909216825284917fe38cb07a52e5d88a83de7c9d29c2841118103e462d20f8c526b35872f9977785910160405180910390a461146260ca80546001019055565b50565b6000818152606760205260409020546060906001600160a01b03166114e45760405162461bcd60e51b815260206004820152602f60248201527f4552433732314d657461646174613a2055524920717565727920666f72206e6f60448201526e3732bc34b9ba32b73a103a37b5b2b760891b606482015260840161081f565b600082815260cd602052604090205460c9906114ff90611cd5565b61150884611cd5565b60405160200161151a9392919061272f565b6040516020818303038152906040529050919050565b606060c96040516020016115449190612775565b604051602081830303815290604052905090565b6097546001600160a01b031633146115825760405162461bcd60e51b815260040161081f90612910565b6001600160a01b0381166115e75760405162461bcd60e51b815260206004820152602660248201527f4f776e61626c653a206e6577206f776e657220697320746865207a65726f206160448201526564647265737360d01b606482015260840161081f565b61146281611ab2565b6097546001600160a01b0316331461161a5760405162461bcd60e51b815260040161081f90612910565b600091825260cc6020526040909120600201805463ffffffff909216600160601b0263ffffffff60601b19909216919091179055565b60006001600160e01b031982166380ac58cd60e01b148061168157506001600160e01b03198216635b5e139f60e01b145b8061071257506301ffc9a760e01b6001600160e01b0319831614610712565b600081815260696020526040902080546001600160a01b0319166001600160a01b03841690811790915581906116d582610dba565b6001600160a01b03167f8c5be1e5ebec7d5bd14f71427d1e84f3dd0314c0f7b2291e5b200ac8c7c3b92560405160405180910390a45050565b8047101561175e5760405162461bcd60e51b815260206004820152601d60248201527f496e73756666696369656e742062616c616e636520666f722073656e64000000604482015260640161081f565b6000826001600160a01b03168260405160006040518083038185875af1925050503d80600081146117ab576040519150601f19603f3d011682016040523d82523d6000602084013e6117b0565b606091505b50509050806109555760405162461bcd60e51b815260206004820152603160248201527f556e61626c6520746f2073656e642076616c75653a20726563697069656e74206044820152701b585e481a185d99481c995d995c9d1959607a1b606482015260840161081f565b6000818152606760205260408120546001600160a01b03166118945760405162461bcd60e51b815260206004820152602c60248201527f4552433732313a206f70657261746f7220717565727920666f72206e6f6e657860448201526b34b9ba32b73a103a37b5b2b760a11b606482015260840161081f565b600061189f83610dba565b9050806001600160a01b0316846001600160a01b031614806118da5750836001600160a01b03166118cf846107aa565b6001600160a01b0316145b8061190a57506001600160a01b038082166000908152606a602090815260408083209388168352929052205460ff165b949350505050565b826001600160a01b031661192582610dba565b6001600160a01b03161461198d5760405162461bcd60e51b815260206004820152602960248201527f4552433732313a207472616e73666572206f6620746f6b656e2074686174206960448201526839903737ba1037bbb760b91b606482015260840161081f565b6001600160a01b0382166119ef5760405162461bcd60e51b8152602060048201526024808201527f4552433732313a207472616e7366657220746f20746865207a65726f206164646044820152637265737360e01b606482015260840161081f565b6119fa6000826116a0565b6001600160a01b0383166000908152606860205260408120805460019290611a239084906129e1565b90915550506001600160a01b0382166000908152606860205260408120805460019290611a51908490612996565b909155505060008181526067602052604080822080546001600160a01b0319166001600160a01b0386811691821790925591518493918716917fddf252ad1be2c89b69c2b068fc378daa952ba7f163c4a11628f55a4df523b3ef91a4505050565b609780546001600160a01b038381166001600160a01b0319831681179093556040519116919082907f8be0079c531659141344cd1fd0a4f28419497f9722a3daafe3b4186f6b6457e090600090a35050565b816001600160a01b0316836001600160a01b03161415611b665760405162461bcd60e51b815260206004820152601960248201527f4552433732313a20617070726f766520746f2063616c6c657200000000000000604482015260640161081f565b6001600160a01b038381166000818152606a6020908152604080832094871680845294825291829020805460ff191686151590811790915591519182527f17307eab39ab6107e8899845ad3d59bd9653f200f220920489ca2b5937696c31910160405180910390a3505050565b600054610100900460ff1680611bec575060005460ff16155b611c085760405162461bcd60e51b815260040161081f906128c2565b600054610100900460ff16158015611c2a576000805461ffff19166101011790555b611c32611f48565b611c3a611f48565b611c448383611fb2565b8015610955576000805461ff0019169055505050565b600054610100900460ff1680611c73575060005460ff16155b611c8f5760405162461bcd60e51b815260040161081f906128c2565b600054610100900460ff16158015611cb1576000805461ffff19166101011790555b611cb9611f48565b611cc1612047565b8015611462576000805461ff001916905550565b606081611cf95750506040805180820190915260018152600360fc1b602082015290565b8160005b8115611d235780611d0d81612a5f565b9150611d1c9050600a836129ae565b9150611cfd565b60008167ffffffffffffffff811115611d3e57611d3e612af4565b6040519080825280601f01601f191660200182016040528015611d68576020820181803683370190505b5090505b841561190a57611d7d6001836129e1565b9150611d8a600a86612a9e565b611d95906030612996565b60f81b818381518110611daa57611daa612ade565b60200101906001600160f81b031916908160001a905350611dcc600a866129ae565b9450611d6c565b611dde848484611912565b611dea848484846120a7565b6110e45760405162461bcd60e51b815260040161081f90612870565b6001600160a01b038216611e5c5760405162461bcd60e51b815260206004820181905260248201527f4552433732313a206d696e7420746f20746865207a65726f2061646472657373604482015260640161081f565b6000818152606760205260409020546001600160a01b031615611ec15760405162461bcd60e51b815260206004820152601c60248201527f4552433732313a20746f6b656e20616c7265616479206d696e74656400000000604482015260640161081f565b6001600160a01b0382166000908152606860205260408120805460019290611eea908490612996565b909155505060008181526067602052604080822080546001600160a01b0319166001600160a01b03861690811790915590518392907fddf252ad1be2c89b69c2b068fc378daa952ba7f163c4a11628f55a4df523b3ef908290a45050565b600054610100900460ff1680611f61575060005460ff16155b611f7d5760405162461bcd60e51b815260040161081f906128c2565b600054610100900460ff16158015611cc1576000805461ffff19166101011790558015611462576000805461ff001916905550565b600054610100900460ff1680611fcb575060005460ff16155b611fe75760405162461bcd60e51b815260040161081f906128c2565b600054610100900460ff16158015612009576000805461ffff19166101011790555b825161201c9060659060208601906121b4565b5081516120309060669060208501906121b4565b508015610955576000805461ff0019169055505050565b600054610100900460ff1680612060575060005460ff16155b61207c5760405162461bcd60e51b815260040161081f906128c2565b600054610100900460ff1615801561209e576000805461ffff19166101011790555b611cc133611ab2565b60006001600160a01b0384163b156121a957604051630a85bd0160e11b81526001600160a01b0385169063150b7a02906120eb90339089908890889060040161279b565b602060405180830381600087803b15801561210557600080fd5b505af1925050508015612135575060408051601f3d908101601f19168201909252612132918101906125aa565b60015b61218f573d808015612163576040519150601f19603f3d011682016040523d82523d6000602084013e612168565b606091505b5080516121875760405162461bcd60e51b815260040161081f90612870565b805181602001fd5b6001600160e01b031916630a85bd0160e11b14905061190a565b506001949350505050565b8280546121c090612a24565b90600052602060002090601f0160209004810192826121e25760008555612228565b82601f106121fb57805160ff1916838001178555612228565b82800160010185558215612228579182015b8281111561222857825182559160200191906001019061220d565b50612234929150612238565b5090565b5b808211156122345760008155600101612239565b600067ffffffffffffffff8084111561226857612268612af4565b604051601f8501601f19908116603f0116810190828211818310171561229057612290612af4565b816040528093508581528686860111156122a957600080fd5b858560208301376000602087830101525050509392505050565b600082601f8301126122d457600080fd5b6122e38383356020850161224d565b9392505050565b803563ffffffff811681146122fe57600080fd5b919050565b60006020828403121561231557600080fd5b81356122e381612b0a565b60008060008060008060c0878903121561233957600080fd5b863561234481612b0a565b955060208701359450612359604088016122ea565b9350612367606088016122ea565b9250612375608088016122ea565b915061238360a088016122ea565b90509295509295509295565b600080604083850312156123a257600080fd5b82356123ad81612b0a565b915060208301356123bd81612b0a565b809150509250929050565b6000806000606084860312156123dd57600080fd5b83356123e881612b0a565b925060208401356123f881612b0a565b929592945050506040919091013590565b6000806000806080858703121561241f57600080fd5b843561242a81612b0a565b9350602085013561243a81612b0a565b925060408501359150606085013567ffffffffffffffff81111561245d57600080fd5b8501601f8101871361246e57600080fd5b61247d8782356020840161224d565b91505092959194509250565b6000806040838503121561249c57600080fd5b82356124a781612b0a565b9150602083013580151581146123bd57600080fd5b600080604083850312156124cf57600080fd5b82356124da81612b0a565b946020939093013593505050565b600080600080600060a0868803121561250057600080fd5b853561250b81612b0a565b945060208601359350604086013567ffffffffffffffff8082111561252f57600080fd5b61253b89838a016122c3565b9450606088013591508082111561255157600080fd5b61255d89838a016122c3565b9350608088013591508082111561257357600080fd5b50612580888289016122c3565b9150509295509295909350565b60006020828403121561259f57600080fd5b81356122e381612b1f565b6000602082840312156125bc57600080fd5b81516122e381612b1f565b6000602082840312156125d957600080fd5b5035919050565b600080604083850312156125f357600080fd5b50508035926020909101359150565b6000806040838503121561261557600080fd5b82359150612625602084016122ea565b90509250929050565b600081518084526126468160208601602086016129f8565b601f01601f19169290920160200192915050565b8054600090600181811c908083168061267457607f831692505b602080841082141561269657634e487b7160e01b600052602260045260246000fd5b8180156126aa57600181146126bb576126e8565b60ff198616895284890196506126e8565b60008881526020902060005b868110156126e05781548b8201529085019083016126c7565b505084890196505b50505050505092915050565b600083516127068184602088016129f8565b83519083019061271a8183602088016129f8565b602f60f81b9101908152600101949350505050565b600061273b828661265a565b845161274b8183602089016129f8565b602f60f81b910190815283516127688160018401602088016129f8565b0160010195945050505050565b6000612781828461265a565b691cdd1bdc99599c9bdb9d60b21b8152600a019392505050565b6001600160a01b03858116825284166020820152604081018390526080606082018190526000906127ce9083018461262e565b9695505050505050565b6020808252825182820181905260009190848201906040850190845b818110156128195783516001600160a01b0316835292840192918401916001016127f4565b50909695505050505050565b6020808252825182820181905260009190848201906040850190845b8181101561281957835183529284019291840191600101612841565b6020815260006122e3602083018461262e565b60208082526032908201527f4552433732313a207472616e7366657220746f206e6f6e20455243373231526560408201527131b2b4bb32b91034b6b83632b6b2b73a32b960711b606082015260800190565b6020808252602e908201527f496e697469616c697a61626c653a20636f6e747261637420697320616c72656160408201526d191e481a5b9a5d1a585b1a5e995960921b606082015260800190565b6020808252818101527f4f776e61626c653a2063616c6c6572206973206e6f7420746865206f776e6572604082015260600190565b60208082526031908201527f4552433732313a207472616e736665722063616c6c6572206973206e6f74206f6040820152701ddb995c881b9bdc88185c1c1c9bdd9959607a1b606082015260800190565b600082198211156129a9576129a9612ab2565b500190565b6000826129bd576129bd612ac8565b500490565b60008160001904831182151516156129dc576129dc612ab2565b500290565b6000828210156129f3576129f3612ab2565b500390565b60005b83811015612a135781810151838201526020016129fb565b838111156110e45750506000910152565b600181811c90821680612a3857607f821691505b60208210811415612a5957634e487b7160e01b600052602260045260246000fd5b50919050565b6000600019821415612a7357612a73612ab2565b5060010190565b600063ffffffff80831681811415612a9457612a94612ab2565b6001019392505050565b600082612aad57612aad612ac8565b500690565b634e487b7160e01b600052601160045260246000fd5b634e487b7160e01b600052601260045260246000fd5b634e487b7160e01b600052603260045260246000fd5b634e487b7160e01b600052604160045260246000fd5b6001600160a01b038116811461146257600080fd5b6001600160e01b03198116811461146257600080fdfea2646970667358221220453f4a0575f669b2b6c8c3fb7368d1cd61eea8dfccfdabc758504f09e6931c6864736f6c63430008070033608060405234801561001057600080fd5b5060405161050e38038061050e83398101604081905261002f91610148565b61003833610047565b61004181610097565b50610178565b600080546001600160a01b038381166001600160a01b0319831681178455604051919092169283917f8be0079c531659141344cd1fd0a4f28419497f9722a3daafe3b4186f6b6457e09190a35050565b6100aa8161014260201b61020a1760201c565b6101205760405162461bcd60e51b815260206004820152603360248201527f5570677261646561626c65426561636f6e3a20696d706c656d656e746174696f60448201527f6e206973206e6f74206120636f6e747261637400000000000000000000000000606482015260840160405180910390fd5b600180546001600160a01b0319166001600160a01b0392909216919091179055565b3b151590565b60006020828403121561015a57600080fd5b81516001600160a01b038116811461017157600080fd5b9392505050565b610387806101876000396000f3fe608060405234801561001057600080fd5b50600436106100575760003560e01c80633659cfe61461005c5780635c60da1b14610071578063715018a61461009a5780638da5cb5b146100a2578063f2fde38b146100b3575b600080fd5b61006f61006a3660046102ec565b6100c6565b005b6001546001600160a01b03165b6040516001600160a01b03909116815260200160405180910390f35b61006f610139565b6000546001600160a01b031661007e565b61006f6100c13660046102ec565b61016f565b6000546001600160a01b031633146100f95760405162461bcd60e51b81526004016100f09061031c565b60405180910390fd5b61010281610210565b6040516001600160a01b038216907fbc7cd75a20ee27fd9adebab32041f755214dbc6bffa90cc0225b39da2e5c2d3b90600090a250565b6000546001600160a01b031633146101635760405162461bcd60e51b81526004016100f09061031c565b61016d600061029c565b565b6000546001600160a01b031633146101995760405162461bcd60e51b81526004016100f09061031c565b6001600160a01b0381166101fe5760405162461bcd60e51b815260206004820152602660248201527f4f776e61626c653a206e6577206f776e657220697320746865207a65726f206160448201526564647265737360d01b60648201526084016100f0565b6102078161029c565b50565b3b151590565b803b61027a5760405162461bcd60e51b815260206004820152603360248201527f5570677261646561626c65426561636f6e3a20696d706c656d656e746174696f6044820152721b881a5cc81b9bdd08184818dbdb9d1c9858dd606a1b60648201526084016100f0565b600180546001600160a01b0319166001600160a01b0392909216919091179055565b600080546001600160a01b038381166001600160a01b0319831681178455604051919092169283917f8be0079c531659141344cd1fd0a4f28419497f9722a3daafe3b4186f6b6457e09190a35050565b6000602082840312156102fe57600080fd5b81356001600160a01b038116811461031557600080fd5b9392505050565b6020808252818101527f4f776e61626c653a2063616c6c6572206973206e6f7420746865206f776e657260408201526060019056fea2646970667358221220d5ef40edcc590b57990b652fed790ab9e2afb2acfd815e5231dba6d66db2e17464736f6c63430008070033416464726573733a206c6f772d6c6576656c2064656c65676174652063616c6c206661696c6564a2646970667358221220daf9fba921c60c193da1337db7b57ef4b0a0fb58aed204e1af295f66a9e61d0d64736f6c63430008070033",
  "devdoc": {
    "kind": "dev",
    "methods": {
      "createArtist(bytes,string,string,string)": {
        "params": {
          "_name": "Name of the artist"
        }
      },
      "owner()": {
        "details": "Returns the address of the current owner."
      },
      "renounceOwnership()": {
        "details": "Leaves the contract without owner. It will not be possible to call `onlyOwner` functions anymore. Can only be called by the current owner. NOTE: Renouncing ownership will leave the contract without an owner, thereby removing any functionality that is only available to the owner."
      },
      "setAdmin(address)": {
        "params": {
          "_newAdmin": "address of new admin"
        }
      },
      "transferOwnership(address)": {
        "details": "Transfers ownership of the contract to a new account (`newOwner`). Can only be called by the current owner."
      },
      "upgradeTo(address)": {
        "details": "Upgrade the implementation of the proxy to `newImplementation`. Calls {_authorizeUpgrade}. Emits an {Upgraded} event."
      },
      "upgradeToAndCall(address,bytes)": {
        "details": "Upgrade the implementation of the proxy to `newImplementation`, and subsequently execute the function call encoded in `data`. Calls {_authorizeUpgrade}. Emits an {Upgraded} event."
      }
    },
    "version": 1
  },
  "userdoc": {
    "events": {
      "CreatedArtist(uint256,string,string,address)": {
        "notice": "Emitted when an Artist is created"
      }
    },
    "kind": "user",
    "methods": {
      "createArtist(bytes,string,string,string)": {
        "notice": "Creates a new artist contract as a factory with a deterministic address Important: None of these fields (except the Url fields with the same hash) can be changed after calling"
      },
      "getSigner(bytes)": {
        "notice": "Get signer address of signature"
      },
      "initialize()": {
        "notice": "Initializes factory"
      },
      "setAdmin(address)": {
        "notice": "Sets the admin for authorizing artist deployment"
      }
    },
    "version": 1
  },
  "storageLayout": {
    "storage": [
      {
        "astId": 561,
        "contract": "contracts/ArtistCreator.sol:ArtistCreator",
        "label": "_initialized",
        "offset": 0,
        "slot": "0",
        "type": "t_bool"
      },
      {
        "astId": 564,
        "contract": "contracts/ArtistCreator.sol:ArtistCreator",
        "label": "_initializing",
        "offset": 1,
        "slot": "0",
        "type": "t_bool"
      },
      {
        "astId": 544,
        "contract": "contracts/ArtistCreator.sol:ArtistCreator",
        "label": "__gap",
        "offset": 0,
        "slot": "1",
        "type": "t_array(t_uint256)50_storage"
      },
      {
        "astId": 711,
        "contract": "contracts/ArtistCreator.sol:ArtistCreator",
        "label": "__gap",
        "offset": 0,
        "slot": "51",
        "type": "t_array(t_uint256)50_storage"
      },
      {
        "astId": 2022,
        "contract": "contracts/ArtistCreator.sol:ArtistCreator",
        "label": "__gap",
        "offset": 0,
        "slot": "101",
        "type": "t_array(t_uint256)50_storage"
      },
      {
        "astId": 10,
        "contract": "contracts/ArtistCreator.sol:ArtistCreator",
        "label": "_owner",
        "offset": 0,
        "slot": "151",
        "type": "t_address"
      },
      {
        "astId": 124,
        "contract": "contracts/ArtistCreator.sol:ArtistCreator",
        "label": "__gap",
        "offset": 0,
        "slot": "152",
        "type": "t_array(t_uint256)49_storage"
      },
      {
        "astId": 4609,
        "contract": "contracts/ArtistCreator.sol:ArtistCreator",
        "label": "atArtistId",
        "offset": 0,
        "slot": "201",
        "type": "t_struct(Counter)2029_storage"
      },
      {
        "astId": 4611,
        "contract": "contracts/ArtistCreator.sol:ArtistCreator",
        "label": "admin",
        "offset": 0,
        "slot": "202",
        "type": "t_address"
      },
      {
        "astId": 4613,
        "contract": "contracts/ArtistCreator.sol:ArtistCreator",
        "label": "DOMAIN_SEPARATOR",
        "offset": 0,
        "slot": "203",
        "type": "t_bytes32"
      },
      {
        "astId": 4615,
        "contract": "contracts/ArtistCreator.sol:ArtistCreator",
        "label": "beaconAddress",
        "offset": 0,
        "slot": "204",
        "type": "t_address"
      },
      {
        "astId": 4618,
        "contract": "contracts/ArtistCreator.sol:ArtistCreator",
        "label": "artistContracts",
        "offset": 0,
        "slot": "205",
        "type": "t_array(t_address)dyn_storage"
      }
    ],
    "types": {
      "t_address": {
        "encoding": "inplace",
        "label": "address",
        "numberOfBytes": "20"
      },
      "t_array(t_address)dyn_storage": {
        "base": "t_address",
        "encoding": "dynamic_array",
        "label": "address[]",
        "numberOfBytes": "32"
      },
      "t_array(t_uint256)49_storage": {
        "base": "t_uint256",
        "encoding": "inplace",
        "label": "uint256[49]",
        "numberOfBytes": "1568"
      },
      "t_array(t_uint256)50_storage": {
        "base": "t_uint256",
        "encoding": "inplace",
        "label": "uint256[50]",
        "numberOfBytes": "1600"
      },
      "t_bool": {
        "encoding": "inplace",
        "label": "bool",
        "numberOfBytes": "1"
      },
      "t_bytes32": {
        "encoding": "inplace",
        "label": "bytes32",
        "numberOfBytes": "32"
      },
      "t_struct(Counter)2029_storage": {
        "encoding": "inplace",
        "label": "struct CountersUpgradeable.Counter",
        "members": [
          {
            "astId": 2028,
            "contract": "contracts/ArtistCreator.sol:ArtistCreator",
            "label": "_value",
            "offset": 0,
            "slot": "0",
            "type": "t_uint256"
          }
        ],
        "numberOfBytes": "32"
      },
      "t_uint256": {
        "encoding": "inplace",
        "label": "uint256",
        "numberOfBytes": "32"
      }
    }
  }
}