{
  "address": "0x2ed6c4B5dA6378c7897AC67Ba9e43102Feb694EE",
  "abi": [
    {
      "inputs": [],
      "stateMutability": "nonpayable",
      "type": "constructor"
    },
    {
      "inputs": [],
      "name": "Create2Error",
      "type": "error"
    },
    {
      "inputs": [],
      "name": "CreateError",
      "type": "error"
    },
    {
      "inputs": [
        {
          "internalType": "address",
          "name": "newController",
          "type": "address"
        }
      ],
      "name": "InvalidNewController",
      "type": "error"
    },
    {
      "inputs": [
        {
          "internalType": "uint256",
          "name": "accountsLength",
          "type": "uint256"
        },
        {
          "internalType": "uint256",
          "name": "allocationsLength",
          "type": "uint256"
        }
      ],
      "name": "InvalidSplit__AccountsAndAllocationsMismatch",
      "type": "error"
    },
    {
      "inputs": [
        {
          "internalType": "uint256",
          "name": "index",
          "type": "uint256"
        }
      ],
      "name": "InvalidSplit__AccountsOutOfOrder",
      "type": "error"
    },
    {
      "inputs": [
        {
          "internalType": "uint256",
          "name": "index",
          "type": "uint256"
        }
      ],
      "name": "InvalidSplit__AllocationMustBePositive",
      "type": "error"
    },
    {
      "inputs": [
        {
          "internalType": "uint32",
          "name": "allocationsSum",
          "type": "uint32"
        }
      ],
      "name": "InvalidSplit__InvalidAllocationsSum",
      "type": "error"
    },
    {
      "inputs": [
        {
          "internalType": "uint32",
          "name": "distributionFee",
          "type": "uint32"
        }
      ],
      "name": "InvalidSplit__InvalidDistributionFee",
      "type": "error"
    },
    {
      "inputs": [
        {
          "internalType": "bytes32",
          "name": "hash",
          "type": "bytes32"
        }
      ],
      "name": "InvalidSplit__InvalidHash",
      "type": "error"
    },
    {
      "inputs": [
        {
          "internalType": "uint256",
          "name": "accountsLength",
          "type": "uint256"
        }
      ],
      "name": "InvalidSplit__TooFewAccounts",
      "type": "error"
    },
    {
      "inputs": [
        {
          "internalType": "address",
          "name": "sender",
          "type": "address"
        }
      ],
      "name": "Unauthorized",
      "type": "error"
    },
    {
      "anonymous": false,
      "inputs": [
        {
          "indexed": true,
          "internalType": "address",
          "name": "split",
          "type": "address"
        }
      ],
      "name": "CancelControlTransfer",
      "type": "event"
    },
    {
      "anonymous": false,
      "inputs": [
        {
          "indexed": true,
          "internalType": "address",
          "name": "split",
          "type": "address"
        },
        {
          "indexed": true,
          "internalType": "address",
          "name": "previousController",
          "type": "address"
        },
        {
          "indexed": true,
          "internalType": "address",
          "name": "newController",
          "type": "address"
        }
      ],
      "name": "ControlTransfer",
      "type": "event"
    },
    {
      "anonymous": false,
      "inputs": [
        {
          "indexed": true,
          "internalType": "address",
          "name": "split",
          "type": "address"
        }
      ],
      "name": "CreateSplit",
      "type": "event"
    },
    {
      "anonymous": false,
      "inputs": [
        {
          "indexed": true,
          "internalType": "address",
          "name": "split",
          "type": "address"
        },
        {
          "indexed": true,
          "internalType": "contract ERC20",
          "name": "token",
          "type": "address"
        },
        {
          "indexed": false,
          "internalType": "uint256",
          "name": "amount",
          "type": "uint256"
        },
        {
          "indexed": true,
          "internalType": "address",
          "name": "distributionAddress",
          "type": "address"
        }
      ],
      "name": "DistributeERC20",
      "type": "event"
    },
    {
      "anonymous": false,
      "inputs": [
        {
          "indexed": true,
          "internalType": "address",
          "name": "split",
          "type": "address"
        },
        {
          "indexed": false,
          "internalType": "uint256",
          "name": "amount",
          "type": "uint256"
        },
        {
          "indexed": true,
          "internalType": "address",
          "name": "distributionAddress",
          "type": "address"
        }
      ],
      "name": "DistributeETH",
      "type": "event"
    },
    {
      "anonymous": false,
      "inputs": [
        {
          "indexed": true,
          "internalType": "address",
          "name": "split",
          "type": "address"
        },
        {
          "indexed": true,
          "internalType": "address",
          "name": "newPotentialController",
          "type": "address"
        }
      ],
      "name": "InitiateControlTransfer",
      "type": "event"
    },
    {
      "anonymous": false,
      "inputs": [
        {
          "indexed": true,
          "internalType": "address",
          "name": "split",
          "type": "address"
        }
      ],
      "name": "UpdateSplit",
      "type": "event"
    },
    {
      "anonymous": false,
      "inputs": [
        {
          "indexed": true,
          "internalType": "address",
          "name": "account",
          "type": "address"
        },
        {
          "indexed": false,
          "internalType": "bool",
          "name": "eth",
          "type": "bool"
        },
        {
          "indexed": false,
          "internalType": "contract ERC20[]",
          "name": "tokens",
          "type": "address[]"
        },
        {
          "indexed": false,
          "internalType": "uint256[]",
          "name": "amounts",
          "type": "uint256[]"
        }
      ],
      "name": "Withdrawal",
      "type": "event"
    },
    {
      "inputs": [],
      "name": "PERCENTAGE_SCALE",
      "outputs": [
        {
          "internalType": "uint256",
          "name": "",
          "type": "uint256"
        }
      ],
      "stateMutability": "view",
      "type": "function"
    },
    {
      "inputs": [
        {
          "internalType": "address",
          "name": "split",
          "type": "address"
        }
      ],
      "name": "acceptControl",
      "outputs": [],
      "stateMutability": "nonpayable",
      "type": "function"
    },
    {
      "inputs": [
        {
          "internalType": "address",
          "name": "split",
          "type": "address"
        }
      ],
      "name": "cancelControlTransfer",
      "outputs": [],
      "stateMutability": "nonpayable",
      "type": "function"
    },
    {
      "inputs": [
        {
          "internalType": "address[]",
          "name": "accounts",
          "type": "address[]"
        },
        {
          "internalType": "uint32[]",
          "name": "percentAllocations",
          "type": "uint32[]"
        },
        {
          "internalType": "uint32",
          "name": "distributionFee",
          "type": "uint32"
        },
        {
          "internalType": "address",
          "name": "controller",
          "type": "address"
        }
      ],
      "name": "createSplit",
      "outputs": [
        {
          "internalType": "address",
          "name": "split",
          "type": "address"
        }
      ],
      "stateMutability": "nonpayable",
      "type": "function"
    },
    {
      "inputs": [
        {
          "internalType": "address",
          "name": "split",
          "type": "address"
        },
        {
          "internalType": "contract ERC20",
          "name": "token",
          "type": "address"
        },
        {
          "internalType": "address[]",
          "name": "accounts",
          "type": "address[]"
        },
        {
          "internalType": "uint32[]",
          "name": "percentAllocations",
          "type": "uint32[]"
        },
        {
          "internalType": "uint32",
          "name": "distributionFee",
          "type": "uint32"
        },
        {
          "internalType": "address",
          "name": "distributionAddress",
          "type": "address"
        }
      ],
      "name": "distributeERC20",
      "outputs": [],
      "stateMutability": "nonpayable",
      "type": "function"
    },
    {
      "inputs": [
        {
          "internalType": "address",
          "name": "split",
          "type": "address"
        },
        {
          "internalType": "address[]",
          "name": "accounts",
          "type": "address[]"
        },
        {
          "internalType": "uint32[]",
          "name": "percentAllocations",
          "type": "uint32[]"
        },
        {
          "internalType": "uint32",
          "name": "distributionFee",
          "type": "uint32"
        },
        {
          "internalType": "address",
          "name": "distributionAddress",
          "type": "address"
        }
      ],
      "name": "distributeETH",
      "outputs": [],
      "stateMutability": "nonpayable",
      "type": "function"
    },
    {
      "inputs": [
        {
          "internalType": "address",
          "name": "split",
          "type": "address"
        }
      ],
      "name": "getController",
      "outputs": [
        {
          "internalType": "address",
          "name": "",
          "type": "address"
        }
      ],
      "stateMutability": "view",
      "type": "function"
    },
    {
      "inputs": [
        {
          "internalType": "address",
          "name": "account",
          "type": "address"
        },
        {
          "internalType": "contract ERC20",
          "name": "token",
          "type": "address"
        }
      ],
      "name": "getERC20Balance",
      "outputs": [
        {
          "internalType": "uint256",
          "name": "",
          "type": "uint256"
        }
      ],
      "stateMutability": "view",
      "type": "function"
    },
    {
      "inputs": [
        {
          "internalType": "address",
          "name": "account",
          "type": "address"
        }
      ],
      "name": "getETHBalance",
      "outputs": [
        {
          "internalType": "uint256",
          "name": "",
          "type": "uint256"
        }
      ],
      "stateMutability": "view",
      "type": "function"
    },
    {
      "inputs": [
        {
          "internalType": "address",
          "name": "split",
          "type": "address"
        }
      ],
      "name": "getHash",
      "outputs": [
        {
          "internalType": "bytes32",
          "name": "",
          "type": "bytes32"
        }
      ],
      "stateMutability": "view",
      "type": "function"
    },
    {
      "inputs": [
        {
          "internalType": "address",
          "name": "split",
          "type": "address"
        }
      ],
      "name": "getNewPotentialController",
      "outputs": [
        {
          "internalType": "address",
          "name": "",
          "type": "address"
        }
      ],
      "stateMutability": "view",
      "type": "function"
    },
    {
      "inputs": [
        {
          "internalType": "address",
          "name": "split",
          "type": "address"
        }
      ],
      "name": "makeSplitImmutable",
      "outputs": [],
      "stateMutability": "nonpayable",
      "type": "function"
    },
    {
      "inputs": [
        {
          "internalType": "address[]",
          "name": "accounts",
          "type": "address[]"
        },
        {
          "internalType": "uint32[]",
          "name": "percentAllocations",
          "type": "uint32[]"
        },
        {
          "internalType": "uint32",
          "name": "distributionFee",
          "type": "uint32"
        }
      ],
      "name": "predictImmutableSplitAddress",
      "outputs": [
        {
          "internalType": "address",
          "name": "split",
          "type": "address"
        }
      ],
      "stateMutability": "view",
      "type": "function"
    },
    {
      "inputs": [
        {
          "internalType": "address",
          "name": "split",
          "type": "address"
        },
        {
          "internalType": "address",
          "name": "newController",
          "type": "address"
        }
      ],
      "name": "transferControl",
      "outputs": [],
      "stateMutability": "nonpayable",
      "type": "function"
    },
    {
      "inputs": [
        {
          "internalType": "address",
          "name": "split",
          "type": "address"
        },
        {
          "internalType": "address[]",
          "name": "accounts",
          "type": "address[]"
        },
        {
          "internalType": "uint32[]",
          "name": "percentAllocations",
          "type": "uint32[]"
        },
        {
          "internalType": "uint32",
          "name": "distributionFee",
          "type": "uint32"
        }
      ],
      "name": "updateSplit",
      "outputs": [],
      "stateMutability": "nonpayable",
      "type": "function"
    },
    {
      "inputs": [],
      "name": "walletImplementation",
      "outputs": [
        {
          "internalType": "address",
          "name": "",
          "type": "address"
        }
      ],
      "stateMutability": "view",
      "type": "function"
    },
    {
      "inputs": [
        {
          "internalType": "address",
          "name": "account",
          "type": "address"
        },
        {
          "internalType": "bool",
          "name": "eth",
          "type": "bool"
        },
        {
          "internalType": "contract ERC20[]",
          "name": "tokens",
          "type": "address[]"
        }
      ],
      "name": "withdraw",
      "outputs": [],
      "stateMutability": "nonpayable",
      "type": "function"
    },
    {
      "stateMutability": "payable",
      "type": "receive"
    }
  ],
  "transactionHash": "0xf818f662859d66b0338b94a1153e32e6bf52acc1e761026237ca07fe69c47a78",
  "args": [],
  "numDeployments": 1,
  "solcInputHash": "0ec70b034b691fe8213612fea7572494",
  "bytecode": "0x60a06040523480156200001157600080fd5b5060405162000020906200007a565b604051809103906000f0801580156200003d573d6000803e3d6000fd5b5073ffffffffffffffffffffffffffffffffffffffff1660808173ffffffffffffffffffffffffffffffffffffffff1660601b8152505062000088565b61069f806200499f83390190565b60805160601c6148e3620000bc6000396000818161180101528181611cfe01528181611d2f0152611e7101526148e36000f3fe6080604052600436106101025760003560e01c80637601f78211610095578063c7de644011610064578063c7de644014610376578063d0e4b2f41461039f578063e10e51d6146103c8578063e61cb05e14610405578063ecef0ace1461042e57610109565b80637601f782146102945780638117abc1146102d157806388c662aa146102fc578063c3a8962c1461033957610109565b80631da0b8fc116100d15780631da0b8fc146101b25780633bb66a7b146101ef5780633f26479e1461022c57806352844dd31461025757610109565b80630fec8be31461010e5780631267c6da146101375780631581130214610160578063189cbaa01461018957610109565b3661010957005b600080fd5b34801561011a57600080fd5b5061013560048036038101906101309190613d46565b610457565b005b34801561014357600080fd5b5061015e60048036038101906101599190613b9f565b610651565b005b34801561016c57600080fd5b5061018760048036038101906101829190613dee565b6107d0565b005b34801561019557600080fd5b506101b060048036038101906101ab9190613b9f565b611040565b005b3480156101be57600080fd5b506101d960048036038101906101d49190613b9f565b6112d2565b6040516101e6919061437e565b60405180910390f35b3480156101fb57600080fd5b5061021660048036038101906102119190613b9f565b61131e565b6040516102239190614402565b60405180910390f35b34801561023857600080fd5b50610241611366565b60405161024e9190614402565b60405180910390f35b34801561026357600080fd5b5061027e60048036038101906102799190613ea7565b61136d565b60405161028b919061431c565b60405180910390f35b3480156102a057600080fd5b506102bb60048036038101906102b69190613f30565b611835565b6040516102c8919061431c565b60405180910390f35b3480156102dd57600080fd5b506102e6611e6f565b6040516102f3919061431c565b60405180910390f35b34801561030857600080fd5b50610323600480360381019061031e9190613b9f565b611e93565b604051610330919061431c565b60405180910390f35b34801561034557600080fd5b50610360600480360381019061035b9190613db2565b611eff565b60405161036d9190614402565b60405180910390f35b34801561038257600080fd5b5061039d60048036038101906103989190613b9f565b611f86565b005b3480156103ab57600080fd5b506103c660048036038101906103c19190613bc8565b612216565b005b3480156103d457600080fd5b506103ef60048036038101906103ea9190613b9f565b61243d565b6040516103fc919061431c565b60405180910390f35b34801561041157600080fd5b5061042c60048036038101906104279190613c9f565b6124a9565b005b34801561043a57600080fd5b5061045560048036038101906104509190613c04565b612b89565b005b600083610465576000610468565b60015b60ff169050600083839050820167ffffffffffffffff8111156104b4577f4e487b7100000000000000000000000000000000000000000000000000000000600052604160045260246000fd5b6040519080825280602002602001820160405280156104e25781602001602082028036833780820191505090505b509050841561053b576104f486613180565b8160008151811061052e577f4e487b7100000000000000000000000000000000000000000000000000000000600052603260045260246000fd5b6020026020010181815250505b60005b848490508110156105f4576105a087868684818110610586577f4e487b7100000000000000000000000000000000000000000000000000000000600052603260045260246000fd5b905060200201602081019061059b9190613fcb565b613241565b82828501815181106105db577f4e487b7100000000000000000000000000000000000000000000000000000000600052603260045260246000fd5b602002602001018181525050808060010191505061053e565b508573ffffffffffffffffffffffffffffffffffffffff167f85a3e6062f44efb182fc495a4d92853e74d45c45ed0e4819ca2242d149291adf868686856040516106419493929190614337565b60405180910390a2505050505050565b80600260008273ffffffffffffffffffffffffffffffffffffffff1673ffffffffffffffffffffffffffffffffffffffff16815260200190815260200160002060010160009054906101000a900473ffffffffffffffffffffffffffffffffffffffff1673ffffffffffffffffffffffffffffffffffffffff163373ffffffffffffffffffffffffffffffffffffffff161461072457336040517f8e4a23d600000000000000000000000000000000000000000000000000000000815260040161071b919061431c565b60405180910390fd5b600260008373ffffffffffffffffffffffffffffffffffffffff1673ffffffffffffffffffffffffffffffffffffffff16815260200190815260200160002060020160006101000a81549073ffffffffffffffffffffffffffffffffffffffff02191690558173ffffffffffffffffffffffffffffffffffffffff167f6c2460a415b84be3720c209fe02f2cad7a6bcba21e8637afe8957b7ec4b6ef8760405160405180910390a25050565b83838360028351101561081b5782516040517fe8c626500000000000000000000000000000000000000000000000000000000081526004016108129190614402565b60405180910390fd5b815183511461086557825182516040517fb34f351d00000000000000000000000000000000000000000000000000000000815260040161085c92919061441d565b60405180910390fd5b620f42406108728361337f565b63ffffffff16146108c2576108868261337f565b6040517ffcc487c10000000000000000000000000000000000000000000000000000000081526004016108b99190614446565b60405180910390fd5b60006001845103905060005b81811015610a6857846001820181518110610912577f4e487b7100000000000000000000000000000000000000000000000000000000600052603260045260246000fd5b602002602001015173ffffffffffffffffffffffffffffffffffffffff16858281518110610969577f4e487b7100000000000000000000000000000000000000000000000000000000600052603260045260246000fd5b602002602001015173ffffffffffffffffffffffffffffffffffffffff16106109c957806040517fac6bd2330000000000000000000000000000000000000000000000000000000081526004016109c09190614402565b60405180910390fd5b600063ffffffff16848281518110610a0a577f4e487b7100000000000000000000000000000000000000000000000000000000600052603260045260246000fd5b602002602001015163ffffffff161415610a5b57806040517f0db7e4c7000000000000000000000000000000000000000000000000000000008152600401610a529190614402565b60405180910390fd5b80806001019150506108ce565b50600063ffffffff16838281518110610aaa577f4e487b7100000000000000000000000000000000000000000000000000000000600052603260045260246000fd5b602002602001015163ffffffff161415610afb57806040517f0db7e4c7000000000000000000000000000000000000000000000000000000008152600401610af29190614402565b60405180910390fd5b50620186a08163ffffffff161115610b4a57806040517f9012de26000000000000000000000000000000000000000000000000000000008152600401610b419190614446565b60405180910390fd5b610b56898888886133f3565b600080600160008b73ffffffffffffffffffffffffffffffffffffffff1673ffffffffffffffffffffffffffffffffffffffff16815260200190815260200160002060008c73ffffffffffffffffffffffffffffffffffffffff1673ffffffffffffffffffffffffffffffffffffffff16815260200190815260200160002054905060008a73ffffffffffffffffffffffffffffffffffffffff166370a082318d6040518263ffffffff1660e01b8152600401610c13919061431c565b60206040518083038186803b158015610c2b57600080fd5b505afa158015610c3f573d6000803e3d6000fd5b505050506040513d601f19601f82011682018060405250810190610c639190613ff4565b90506001811115610c7b576002818301039250610c8b565b600182610c88919061465d565b92505b60018214610d155760018060008d73ffffffffffffffffffffffffffffffffffffffff1673ffffffffffffffffffffffffffffffffffffffff16815260200190815260200160002060008e73ffffffffffffffffffffffffffffffffffffffff1673ffffffffffffffffffffffffffffffffffffffff168152602001908152602001600020819055505b8673ffffffffffffffffffffffffffffffffffffffff168b73ffffffffffffffffffffffffffffffffffffffff168d73ffffffffffffffffffffffffffffffffffffffff167fb5ee5dc3d2c31a019bbf2c787e0e9c97971c96aceea1c38c12fc8fd25c536d4686604051610d899190614402565b60405180910390a460008863ffffffff1614610e7f576000610db1848a63ffffffff1661348f565b905080600160008e73ffffffffffffffffffffffffffffffffffffffff1673ffffffffffffffffffffffffffffffffffffffff16815260200190815260200160002060008073ffffffffffffffffffffffffffffffffffffffff168b73ffffffffffffffffffffffffffffffffffffffff161415610e2f5733610e31565b8a5b73ffffffffffffffffffffffffffffffffffffffff1673ffffffffffffffffffffffffffffffffffffffff168152602001908152602001600020600082825401925050819055508084039350505b60008a51905060005b81811015610fb657610ee0858c8381518110610ecd577f4e487b7100000000000000000000000000000000000000000000000000000000600052603260045260246000fd5b602002602001015163ffffffff1661348f565b600160008f73ffffffffffffffffffffffffffffffffffffffff1673ffffffffffffffffffffffffffffffffffffffff16815260200190815260200160002060008e8481518110610f5a577f4e487b7100000000000000000000000000000000000000000000000000000000600052603260045260246000fd5b602002602001015173ffffffffffffffffffffffffffffffffffffffff1673ffffffffffffffffffffffffffffffffffffffff168152602001908152602001600020600082825401925050819055508080600101915050610e88565b50506001811115611032578b73ffffffffffffffffffffffffffffffffffffffff16637c1f3ffe8c600184036040518363ffffffff1660e01b8152600401610fff929190614399565b600060405180830381600087803b15801561101957600080fd5b505af115801561102d573d6000803e3d6000fd5b505050505b505050505050505050505050565b80600260008273ffffffffffffffffffffffffffffffffffffffff1673ffffffffffffffffffffffffffffffffffffffff16815260200190815260200160002060010160009054906101000a900473ffffffffffffffffffffffffffffffffffffffff1673ffffffffffffffffffffffffffffffffffffffff163373ffffffffffffffffffffffffffffffffffffffff161461111357336040517f8e4a23d600000000000000000000000000000000000000000000000000000000815260040161110a919061431c565b60405180910390fd5b600260008373ffffffffffffffffffffffffffffffffffffffff1673ffffffffffffffffffffffffffffffffffffffff16815260200190815260200160002060020160006101000a81549073ffffffffffffffffffffffffffffffffffffffff0219169055600073ffffffffffffffffffffffffffffffffffffffff16600260008473ffffffffffffffffffffffffffffffffffffffff1673ffffffffffffffffffffffffffffffffffffffff16815260200190815260200160002060010160009054906101000a900473ffffffffffffffffffffffffffffffffffffffff1673ffffffffffffffffffffffffffffffffffffffff168373ffffffffffffffffffffffffffffffffffffffff167f943d69cf2bbe08a9d44b3c4ce6da17d939d758739370620871ce99a6437866d060405160405180910390a46000600260008473ffffffffffffffffffffffffffffffffffffffff1673ffffffffffffffffffffffffffffffffffffffff16815260200190815260200160002060010160006101000a81548173ffffffffffffffffffffffffffffffffffffffff021916908373ffffffffffffffffffffffffffffffffffffffff1602179055505050565b6000600260008373ffffffffffffffffffffffffffffffffffffffff1673ffffffffffffffffffffffffffffffffffffffff168152602001908152602001600020600001549050919050565b60008060008373ffffffffffffffffffffffffffffffffffffffff1673ffffffffffffffffffffffffffffffffffffffff168152602001908152602001600020549050919050565b620f424081565b6000858580806020026020016040519081016040528093929190818152602001838360200280828437600081840152601f19601f82011690508083019250505050505050848480806020026020016040519081016040528093929190818152602001838360200280828437600081840152601f19601f820116905080830192505050505050508360028351101561143c5782516040517fe8c626500000000000000000000000000000000000000000000000000000000081526004016114339190614402565b60405180910390fd5b815183511461148657825182516040517fb34f351d00000000000000000000000000000000000000000000000000000000815260040161147d92919061441d565b60405180910390fd5b620f42406114938361337f565b63ffffffff16146114e3576114a78261337f565b6040517ffcc487c10000000000000000000000000000000000000000000000000000000081526004016114da9190614446565b60405180910390fd5b60006001845103905060005b8181101561168957846001820181518110611533577f4e487b7100000000000000000000000000000000000000000000000000000000600052603260045260246000fd5b602002602001015173ffffffffffffffffffffffffffffffffffffffff1685828151811061158a577f4e487b7100000000000000000000000000000000000000000000000000000000600052603260045260246000fd5b602002602001015173ffffffffffffffffffffffffffffffffffffffff16106115ea57806040517fac6bd2330000000000000000000000000000000000000000000000000000000081526004016115e19190614402565b60405180910390fd5b600063ffffffff1684828151811061162b577f4e487b7100000000000000000000000000000000000000000000000000000000600052603260045260246000fd5b602002602001015163ffffffff16141561167c57806040517f0db7e4c70000000000000000000000000000000000000000000000000000000081526004016116739190614402565b60405180910390fd5b80806001019150506114ef565b50600063ffffffff168382815181106116cb577f4e487b7100000000000000000000000000000000000000000000000000000000600052603260045260246000fd5b602002602001015163ffffffff16141561171c57806040517f0db7e4c70000000000000000000000000000000000000000000000000000000081526004016117139190614402565b60405180910390fd5b50620186a08163ffffffff16111561176b57806040517f9012de260000000000000000000000000000000000000000000000000000000081526004016117629190614446565b60405180910390fd5b60006117fa8a8a80806020026020016040519081016040528093929190818152602001838360200280828437600081840152601f19601f82011690508083019250505050505050898980806020026020016040519081016040528093929190818152602001838360200280828437600081840152601f19601f82011690508083019250505050505050886134a1565b90506118267f0000000000000000000000000000000000000000000000000000000000000000826134d7565b94505050505095945050505050565b6000868680806020026020016040519081016040528093929190818152602001838360200280828437600081840152601f19601f82011690508083019250505050505050858580806020026020016040519081016040528093929190818152602001838360200280828437600081840152601f19601f82011690508083019250505050505050846002835110156119045782516040517fe8c626500000000000000000000000000000000000000000000000000000000081526004016118fb9190614402565b60405180910390fd5b815183511461194e57825182516040517fb34f351d00000000000000000000000000000000000000000000000000000000815260040161194592919061441d565b60405180910390fd5b620f424061195b8361337f565b63ffffffff16146119ab5761196f8261337f565b6040517ffcc487c10000000000000000000000000000000000000000000000000000000081526004016119a29190614446565b60405180910390fd5b60006001845103905060005b81811015611b51578460018201815181106119fb577f4e487b7100000000000000000000000000000000000000000000000000000000600052603260045260246000fd5b602002602001015173ffffffffffffffffffffffffffffffffffffffff16858281518110611a52577f4e487b7100000000000000000000000000000000000000000000000000000000600052603260045260246000fd5b602002602001015173ffffffffffffffffffffffffffffffffffffffff1610611ab257806040517fac6bd233000000000000000000000000000000000000000000000000000000008152600401611aa99190614402565b60405180910390fd5b600063ffffffff16848281518110611af3577f4e487b7100000000000000000000000000000000000000000000000000000000600052603260045260246000fd5b602002602001015163ffffffff161415611b4457806040517f0db7e4c7000000000000000000000000000000000000000000000000000000008152600401611b3b9190614402565b60405180910390fd5b80806001019150506119b7565b50600063ffffffff16838281518110611b93577f4e487b7100000000000000000000000000000000000000000000000000000000600052603260045260246000fd5b602002602001015163ffffffff161415611be457806040517f0db7e4c7000000000000000000000000000000000000000000000000000000008152600401611bdb9190614402565b60405180910390fd5b50620186a08163ffffffff161115611c3357806040517f9012de26000000000000000000000000000000000000000000000000000000008152600401611c2a9190614446565b60405180910390fd5b6000611cc28b8b80806020026020016040519081016040528093929190818152602001838360200280828437600081840152601f19601f820116905080830192505050505050508a8a80806020026020016040519081016040528093929190818152602001838360200280828437600081840152601f19601f82011690508083019250505050505050896134a1565b9050600073ffffffffffffffffffffffffffffffffffffffff168673ffffffffffffffffffffffffffffffffffffffff161415611d2a57611d237f0000000000000000000000000000000000000000000000000000000000000000826134ec565b9450611dd7565b611d537f0000000000000000000000000000000000000000000000000000000000000000613606565b945085600260008773ffffffffffffffffffffffffffffffffffffffff1673ffffffffffffffffffffffffffffffffffffffff16815260200190815260200160002060010160006101000a81548173ffffffffffffffffffffffffffffffffffffffff021916908373ffffffffffffffffffffffffffffffffffffffff1602179055505b80600260008773ffffffffffffffffffffffffffffffffffffffff1673ffffffffffffffffffffffffffffffffffffffff168152602001908152602001600020600001819055508473ffffffffffffffffffffffffffffffffffffffff167f8d5f9943c664a3edaf4d3eb18cc5e2c45a7d2dc5869be33d33bbc0fff9bc259060405160405180910390a2505050509695505050505050565b7f000000000000000000000000000000000000000000000000000000000000000081565b6000600260008373ffffffffffffffffffffffffffffffffffffffff1673ffffffffffffffffffffffffffffffffffffffff16815260200190815260200160002060010160009054906101000a900473ffffffffffffffffffffffffffffffffffffffff169050919050565b6000600160008373ffffffffffffffffffffffffffffffffffffffff1673ffffffffffffffffffffffffffffffffffffffff16815260200190815260200160002060008473ffffffffffffffffffffffffffffffffffffffff1673ffffffffffffffffffffffffffffffffffffffff16815260200190815260200160002054905092915050565b80600260008273ffffffffffffffffffffffffffffffffffffffff1673ffffffffffffffffffffffffffffffffffffffff16815260200190815260200160002060020160009054906101000a900473ffffffffffffffffffffffffffffffffffffffff1673ffffffffffffffffffffffffffffffffffffffff163373ffffffffffffffffffffffffffffffffffffffff161461205957336040517f8e4a23d6000000000000000000000000000000000000000000000000000000008152600401612050919061431c565b60405180910390fd5b600260008373ffffffffffffffffffffffffffffffffffffffff1673ffffffffffffffffffffffffffffffffffffffff16815260200190815260200160002060020160006101000a81549073ffffffffffffffffffffffffffffffffffffffff02191690553373ffffffffffffffffffffffffffffffffffffffff16600260008473ffffffffffffffffffffffffffffffffffffffff1673ffffffffffffffffffffffffffffffffffffffff16815260200190815260200160002060010160009054906101000a900473ffffffffffffffffffffffffffffffffffffffff1673ffffffffffffffffffffffffffffffffffffffff168373ffffffffffffffffffffffffffffffffffffffff167f943d69cf2bbe08a9d44b3c4ce6da17d939d758739370620871ce99a6437866d060405160405180910390a433600260008473ffffffffffffffffffffffffffffffffffffffff1673ffffffffffffffffffffffffffffffffffffffff16815260200190815260200160002060010160006101000a81548173ffffffffffffffffffffffffffffffffffffffff021916908373ffffffffffffffffffffffffffffffffffffffff1602179055505050565b81600260008273ffffffffffffffffffffffffffffffffffffffff1673ffffffffffffffffffffffffffffffffffffffff16815260200190815260200160002060010160009054906101000a900473ffffffffffffffffffffffffffffffffffffffff1673ffffffffffffffffffffffffffffffffffffffff163373ffffffffffffffffffffffffffffffffffffffff16146122e957336040517f8e4a23d60000000000000000000000000000000000000000000000000000000081526004016122e0919061431c565b60405180910390fd5b81600073ffffffffffffffffffffffffffffffffffffffff168173ffffffffffffffffffffffffffffffffffffffff16141561235c57806040517fc3691307000000000000000000000000000000000000000000000000000000008152600401612353919061431c565b60405180910390fd5b82600260008673ffffffffffffffffffffffffffffffffffffffff1673ffffffffffffffffffffffffffffffffffffffff16815260200190815260200160002060020160006101000a81548173ffffffffffffffffffffffffffffffffffffffff021916908373ffffffffffffffffffffffffffffffffffffffff1602179055508273ffffffffffffffffffffffffffffffffffffffff168473ffffffffffffffffffffffffffffffffffffffff167f107cf6ea8668d533df1aab5bb8b6315bb0c25f0b6c955558d09368f290668fc760405160405180910390a350505050565b6000600260008373ffffffffffffffffffffffffffffffffffffffff1673ffffffffffffffffffffffffffffffffffffffff16815260200190815260200160002060020160009054906101000a900473ffffffffffffffffffffffffffffffffffffffff169050919050565b8383836002835110156124f45782516040517fe8c626500000000000000000000000000000000000000000000000000000000081526004016124eb9190614402565b60405180910390fd5b815183511461253e57825182516040517fb34f351d00000000000000000000000000000000000000000000000000000000815260040161253592919061441d565b60405180910390fd5b620f424061254b8361337f565b63ffffffff161461259b5761255f8261337f565b6040517ffcc487c10000000000000000000000000000000000000000000000000000000081526004016125929190614446565b60405180910390fd5b60006001845103905060005b81811015612741578460018201815181106125eb577f4e487b7100000000000000000000000000000000000000000000000000000000600052603260045260246000fd5b602002602001015173ffffffffffffffffffffffffffffffffffffffff16858281518110612642577f4e487b7100000000000000000000000000000000000000000000000000000000600052603260045260246000fd5b602002602001015173ffffffffffffffffffffffffffffffffffffffff16106126a257806040517fac6bd2330000000000000000000000000000000000000000000000000000000081526004016126999190614402565b60405180910390fd5b600063ffffffff168482815181106126e3577f4e487b7100000000000000000000000000000000000000000000000000000000600052603260045260246000fd5b602002602001015163ffffffff16141561273457806040517f0db7e4c700000000000000000000000000000000000000000000000000000000815260040161272b9190614402565b60405180910390fd5b80806001019150506125a7565b50600063ffffffff16838281518110612783577f4e487b7100000000000000000000000000000000000000000000000000000000600052603260045260246000fd5b602002602001015163ffffffff1614156127d457806040517f0db7e4c70000000000000000000000000000000000000000000000000000000081526004016127cb9190614402565b60405180910390fd5b50620186a08163ffffffff16111561282357806040517f9012de2600000000000000000000000000000000000000000000000000000000815260040161281a9190614446565b60405180910390fd5b61282f888888886133f3565b60008060008a73ffffffffffffffffffffffffffffffffffffffff1673ffffffffffffffffffffffffffffffffffffffff16815260200190815260200160002054905060008973ffffffffffffffffffffffffffffffffffffffff1631905060006001828461289e91906145cd565b6128a8919061465d565b9050600183146128f75760016000808d73ffffffffffffffffffffffffffffffffffffffff1673ffffffffffffffffffffffffffffffffffffffff168152602001908152602001600020819055505b8673ffffffffffffffffffffffffffffffffffffffff168b73ffffffffffffffffffffffffffffffffffffffff167f87c3ca0a87d9b82033e4bc55e6d30621f8d7e0c9d8ca7988edfde8932787b77b836040516129549190614402565b60405180910390a360008863ffffffff1614612a0c57600061297c828a63ffffffff1661348f565b9050806000808073ffffffffffffffffffffffffffffffffffffffff168b73ffffffffffffffffffffffffffffffffffffffff1614156129bc57336129be565b8a5b73ffffffffffffffffffffffffffffffffffffffff1673ffffffffffffffffffffffffffffffffffffffff168152602001908152602001600020600082825401925050819055508082039150505b60008a51905060005b81811015612b0557612a6d838c8381518110612a5a577f4e487b7100000000000000000000000000000000000000000000000000000000600052603260045260246000fd5b602002602001015163ffffffff1661348f565b6000808e8481518110612aa9577f4e487b7100000000000000000000000000000000000000000000000000000000600052603260045260246000fd5b602002602001015173ffffffffffffffffffffffffffffffffffffffff1673ffffffffffffffffffffffffffffffffffffffff168152602001908152602001600020600082825401925050819055508080600101915050612a15565b50506000821115612b7c578a73ffffffffffffffffffffffffffffffffffffffff1663ab0ebff4836040518263ffffffff1660e01b8152600401612b499190614402565b600060405180830381600087803b158015612b6357600080fd5b505af1158015612b77573d6000803e3d6000fd5b505050505b5050505050505050505050565b85600260008273ffffffffffffffffffffffffffffffffffffffff1673ffffffffffffffffffffffffffffffffffffffff16815260200190815260200160002060010160009054906101000a900473ffffffffffffffffffffffffffffffffffffffff1673ffffffffffffffffffffffffffffffffffffffff163373ffffffffffffffffffffffffffffffffffffffff1614612c5c57336040517f8e4a23d6000000000000000000000000000000000000000000000000000000008152600401612c53919061431c565b60405180910390fd5b858580806020026020016040519081016040528093929190818152602001838360200280828437600081840152601f19601f82011690508083019250505050505050848480806020026020016040519081016040528093929190818152602001838360200280828437600081840152601f19601f8201169050808301925050505050505083600283511015612d295782516040517fe8c62650000000000000000000000000000000000000000000000000000000008152600401612d209190614402565b60405180910390fd5b8151835114612d7357825182516040517fb34f351d000000000000000000000000000000000000000000000000000000008152600401612d6a92919061441d565b60405180910390fd5b620f4240612d808361337f565b63ffffffff1614612dd057612d948261337f565b6040517ffcc487c1000000000000000000000000000000000000000000000000000000008152600401612dc79190614446565b60405180910390fd5b60006001845103905060005b81811015612f7657846001820181518110612e20577f4e487b7100000000000000000000000000000000000000000000000000000000600052603260045260246000fd5b602002602001015173ffffffffffffffffffffffffffffffffffffffff16858281518110612e77577f4e487b7100000000000000000000000000000000000000000000000000000000600052603260045260246000fd5b602002602001015173ffffffffffffffffffffffffffffffffffffffff1610612ed757806040517fac6bd233000000000000000000000000000000000000000000000000000000008152600401612ece9190614402565b60405180910390fd5b600063ffffffff16848281518110612f18577f4e487b7100000000000000000000000000000000000000000000000000000000600052603260045260246000fd5b602002602001015163ffffffff161415612f6957806040517f0db7e4c7000000000000000000000000000000000000000000000000000000008152600401612f609190614402565b60405180910390fd5b8080600101915050612ddc565b50600063ffffffff16838281518110612fb8577f4e487b7100000000000000000000000000000000000000000000000000000000600052603260045260246000fd5b602002602001015163ffffffff16141561300957806040517f0db7e4c70000000000000000000000000000000000000000000000000000000081526004016130009190614402565b60405180910390fd5b50620186a08163ffffffff16111561305857806040517f9012de2600000000000000000000000000000000000000000000000000000000815260040161304f9190614446565b60405180910390fd5b60006130e78a8a80806020026020016040519081016040528093929190818152602001838360200280828437600081840152601f19601f82011690508083019250505050505050898980806020026020016040519081016040528093929190818152602001838360200280828437600081840152601f19601f82011690508083019250505050505050886134a1565b905080600260008d73ffffffffffffffffffffffffffffffffffffffff1673ffffffffffffffffffffffffffffffffffffffff168152602001908152602001600020600001819055508a73ffffffffffffffffffffffffffffffffffffffff167f45e1e99513dd915ac128b94953ca64c6375717ea1894b3114db08cdca51debd260405160405180910390a25050505050505050505050565b600060016000808473ffffffffffffffffffffffffffffffffffffffff1673ffffffffffffffffffffffffffffffffffffffff168152602001908152602001600020546131cd919061465d565b905060016000808473ffffffffffffffffffffffffffffffffffffffff1673ffffffffffffffffffffffffffffffffffffffff1681526020019081526020016000208190555061323c818373ffffffffffffffffffffffffffffffffffffffff1661371e90919063ffffffff16565b919050565b600060018060008473ffffffffffffffffffffffffffffffffffffffff1673ffffffffffffffffffffffffffffffffffffffff16815260200190815260200160002060008573ffffffffffffffffffffffffffffffffffffffff1673ffffffffffffffffffffffffffffffffffffffff168152602001908152602001600020546132cb919061465d565b905060018060008473ffffffffffffffffffffffffffffffffffffffff1673ffffffffffffffffffffffffffffffffffffffff16815260200190815260200160002060008573ffffffffffffffffffffffffffffffffffffffff1673ffffffffffffffffffffffffffffffffffffffff1681526020019081526020016000208190555061337983828473ffffffffffffffffffffffffffffffffffffffff166137719092919063ffffffff16565b92915050565b6000808251905060005b818110156133ec578381815181106133ca577f4e487b7100000000000000000000000000000000000000000000000000000000600052603260045260246000fd5b6020026020010151836133dd9190614623565b92508080600101915050613389565b5050919050565b60006134008484846134a1565b905080600260008773ffffffffffffffffffffffffffffffffffffffff1673ffffffffffffffffffffffffffffffffffffffff168152602001908152602001600020600001541461348857806040517fdd5ff45700000000000000000000000000000000000000000000000000000000815260040161347f919061437e565b60405180910390fd5b5050505050565b6000620f424082840204905092915050565b60008383836040516020016134b8939291906142e7565b6040516020818303038152906040528051906020012090509392505050565b60006134e4838330613817565b905092915050565b60006040517f3d605d80600a3d3981f336603057343d52307f0000000000000000000000000081527f830d2d700a97af574b186c80d40429385d24241565b08a7c559ba283a964d9b160138201527f60203da23d3df35b3d3d3d3d363d3d37363d730000000000000000000000000060338201528360601b60468201527f5af43d3d93803e605b57fd5bf300000000000000000000000000000000000000605a820152826067826000f5915050600073ffffffffffffffffffffffffffffffffffffffff168173ffffffffffffffffffffffffffffffffffffffff161415613600576040517f380bbe1300000000000000000000000000000000000000000000000000000000815260040160405180910390fd5b92915050565b60006040517f3d605d80600a3d3981f336603057343d52307f0000000000000000000000000081527f830d2d700a97af574b186c80d40429385d24241565b08a7c559ba283a964d9b160138201527f60203da23d3df35b3d3d3d3d363d3d37363d730000000000000000000000000060338201528260601b60468201527f5af43d3d93803e605b57fd5bf300000000000000000000000000000000000000605a8201526067816000f0915050600073ffffffffffffffffffffffffffffffffffffffff168173ffffffffffffffffffffffffffffffffffffffff161415613719576040517f985da9b000000000000000000000000000000000000000000000000000000000815260040160405180910390fd5b919050565b600080600080600085875af190508061376c576040517f08c379a0000000000000000000000000000000000000000000000000000000008152600401613763906143e2565b60405180910390fd5b505050565b60006040517fa9059cbb00000000000000000000000000000000000000000000000000000000815273ffffffffffffffffffffffffffffffffffffffff841660048201528260248201526000806044836000895af19150506137d2816138e3565b613811576040517f08c379a0000000000000000000000000000000000000000000000000000000008152600401613808906143c2565b60405180910390fd5b50505050565b60006040517f3d605d80600a3d3981f336603057343d52307f0000000000000000000000000081527f830d2d700a97af574b186c80d40429385d24241565b08a7c559ba283a964d9b160138201527f60203da23d3df35b3d3d3d3d363d3d37363d730000000000000000000000000060338201528460601b60468201527f5af43d3d93803e605b57fd5bf3ff000000000000000000000000000000000000605a8201528260601b606882015283607c82015260678120609c820152605560678201209150509392505050565b60003d826138f557806000803e806000fd5b806020811461390f57600081146139205760009250613925565b816000803e60005115159250613925565b600192505b5050919050565b600061393f61393a84614486565b614461565b9050808382526020820190508285602086028201111561395e57600080fd5b60005b8581101561398e57816139748882613a04565b845260208401935060208301925050600181019050613961565b5050509392505050565b60006139ab6139a6846144b2565b614461565b905080838252602082019050828560208602820111156139ca57600080fd5b60005b858110156139fa57816139e08882613b8a565b8452602084019350602083019250506001810190506139cd565b5050509392505050565b600081359050613a138161483a565b92915050565b60008083601f840112613a2b57600080fd5b8235905067ffffffffffffffff811115613a4457600080fd5b602083019150836020820283011115613a5c57600080fd5b9250929050565b600082601f830112613a7457600080fd5b8135613a8484826020860161392c565b91505092915050565b60008083601f840112613a9f57600080fd5b8235905067ffffffffffffffff811115613ab857600080fd5b602083019150836020820283011115613ad057600080fd5b9250929050565b60008083601f840112613ae957600080fd5b8235905067ffffffffffffffff811115613b0257600080fd5b602083019150836020820283011115613b1a57600080fd5b9250929050565b600082601f830112613b3257600080fd5b8135613b42848260208601613998565b91505092915050565b600081359050613b5a81614851565b92915050565b600081359050613b6f81614868565b92915050565b600081519050613b848161487f565b92915050565b600081359050613b9981614896565b92915050565b600060208284031215613bb157600080fd5b6000613bbf84828501613a04565b91505092915050565b60008060408385031215613bdb57600080fd5b6000613be985828601613a04565b9250506020613bfa85828601613a04565b9150509250929050565b60008060008060008060808789031215613c1d57600080fd5b6000613c2b89828a01613a04565b965050602087013567ffffffffffffffff811115613c4857600080fd5b613c5489828a01613a19565b9550955050604087013567ffffffffffffffff811115613c7357600080fd5b613c7f89828a01613ad7565b93509350506060613c9289828a01613b8a565b9150509295509295509295565b600080600080600060a08688031215613cb757600080fd5b6000613cc588828901613a04565b955050602086013567ffffffffffffffff811115613ce257600080fd5b613cee88828901613a63565b945050604086013567ffffffffffffffff811115613d0b57600080fd5b613d1788828901613b21565b9350506060613d2888828901613b8a565b9250506080613d3988828901613a04565b9150509295509295909350565b60008060008060608587031215613d5c57600080fd5b6000613d6a87828801613a04565b9450506020613d7b87828801613b4b565b935050604085013567ffffffffffffffff811115613d9857600080fd5b613da487828801613a8d565b925092505092959194509250565b60008060408385031215613dc557600080fd5b6000613dd385828601613a04565b9250506020613de485828601613b60565b9150509250929050565b60008060008060008060c08789031215613e0757600080fd5b6000613e1589828a01613a04565b9650506020613e2689828a01613b60565b955050604087013567ffffffffffffffff811115613e4357600080fd5b613e4f89828a01613a63565b945050606087013567ffffffffffffffff811115613e6c57600080fd5b613e7889828a01613b21565b9350506080613e8989828a01613b8a565b92505060a0613e9a89828a01613a04565b9150509295509295509295565b600080600080600060608688031215613ebf57600080fd5b600086013567ffffffffffffffff811115613ed957600080fd5b613ee588828901613a19565b9550955050602086013567ffffffffffffffff811115613f0457600080fd5b613f1088828901613ad7565b93509350506040613f2388828901613b8a565b9150509295509295909350565b60008060008060008060808789031215613f4957600080fd5b600087013567ffffffffffffffff811115613f6357600080fd5b613f6f89828a01613a19565b9650965050602087013567ffffffffffffffff811115613f8e57600080fd5b613f9a89828a01613ad7565b94509450506040613fad89828a01613b8a565b9250506060613fbe89828a01613a04565b9150509295509295509295565b600060208284031215613fdd57600080fd5b6000613feb84828501613b60565b91505092915050565b60006020828403121561400657600080fd5b600061401484828501613b75565b91505092915050565b6000614029838361408c565b60208301905092915050565b60006140418383614230565b60208301905092915050565b60006140598383614294565b60208301905092915050565b600061407183836142c1565b60208301905092915050565b61408681614691565b82525050565b61409581614691565b82525050565b60006140a682614518565b6140b0818561457e565b93506140bb836144de565b8060005b838110156140ec5781516140d3888261401d565b97506140de83614539565b9250506001810190506140bf565b5085935050505092915050565b6000614105838561456d565b9350614110826144ee565b8060005b858110156141495761412682846145b6565b6141308882614035565b975061413b83614546565b925050600181019050614114565b5085925050509392505050565b600061416182614523565b61416b8185614589565b9350614176836144f8565b8060005b838110156141a757815161418e888261404d565b975061419983614553565b92505060018101905061417a565b5085935050505092915050565b60006141bf8261452e565b6141c9818561459a565b93506141d483614508565b8060005b838110156142055781516141ec8882614065565b97506141f783614560565b9250506001810190506141d8565b5085935050505092915050565b61421b816146a3565b82525050565b61422a816146af565b82525050565b61423981614705565b82525050565b61424881614705565b82525050565b600061425b600f836145a5565b9150614266826147e8565b602082019050919050565b600061427e6013836145a5565b915061428982614811565b602082019050919050565b61429d816146eb565b82525050565b6142ac816146eb565b82525050565b6142bb816146f5565b82525050565b6142ca816146f5565b82525050565b6142e16142dc826146f5565b61475a565b82525050565b60006142f3828661409b565b91506142ff82856141b4565b915061430b82846142d0565b600482019150819050949350505050565b6000602082019050614331600083018461407d565b92915050565b600060608201905061434c6000830187614212565b818103602083015261435f8185876140f9565b905081810360408301526143738184614156565b905095945050505050565b60006020820190506143936000830184614221565b92915050565b60006040820190506143ae600083018561423f565b6143bb60208301846142a3565b9392505050565b600060208201905081810360008301526143db8161424e565b9050919050565b600060208201905081810360008301526143fb81614271565b9050919050565b600060208201905061441760008301846142a3565b92915050565b600060408201905061443260008301856142a3565b61443f60208301846142a3565b9392505050565b600060208201905061445b60008301846142b2565b92915050565b600061446b61447c565b90506144778282614729565b919050565b6000604051905090565b600067ffffffffffffffff8211156144a1576144a061479b565b5b602082029050602081019050919050565b600067ffffffffffffffff8211156144cd576144cc61479b565b5b602082029050602081019050919050565b6000819050602082019050919050565b6000819050919050565b6000819050602082019050919050565b6000819050602082019050919050565b600081519050919050565b600081519050919050565b600081519050919050565b6000602082019050919050565b6000602082019050919050565b6000602082019050919050565b6000602082019050919050565b600082825260208201905092915050565b600081905092915050565b600082825260208201905092915050565b600081905092915050565b600082825260208201905092915050565b60006145c56020840184613b60565b905092915050565b60006145d8826146eb565b91506145e3836146eb565b9250827fffffffffffffffffffffffffffffffffffffffffffffffffffffffffffffffff038211156146185761461761476c565b5b828201905092915050565b600061462e826146f5565b9150614639836146f5565b92508263ffffffff038211156146525761465161476c565b5b828201905092915050565b6000614668826146eb565b9150614673836146eb565b9250828210156146865761468561476c565b5b828203905092915050565b600061469c826146cb565b9050919050565b60008115159050919050565b6000819050919050565b60006146c482614691565b9050919050565b600073ffffffffffffffffffffffffffffffffffffffff82169050919050565b6000819050919050565b600063ffffffff82169050919050565b600061471082614717565b9050919050565b6000614722826146cb565b9050919050565b614732826147ca565b810181811067ffffffffffffffff821117156147515761475061479b565b5b80604052505050565b6000614765826147db565b9050919050565b7f4e487b7100000000000000000000000000000000000000000000000000000000600052601160045260246000fd5b7f4e487b7100000000000000000000000000000000000000000000000000000000600052604160045260246000fd5b6000601f19601f8301169050919050565b60008160e01b9050919050565b7f5452414e534645525f4641494c45440000000000000000000000000000000000600082015250565b7f4554485f5452414e534645525f4641494c454400000000000000000000000000600082015250565b61484381614691565b811461484e57600080fd5b50565b61485a816146a3565b811461486557600080fd5b50565b614871816146b9565b811461487c57600080fd5b50565b614888816146eb565b811461489357600080fd5b50565b61489f816146f5565b81146148aa57600080fd5b5056fea2646970667358221220def6c4c28030a470f50fd8d469818d45ebf39964392e23bc9e2801218f76877064736f6c6343000804003360a060405234801561001057600080fd5b503373ffffffffffffffffffffffffffffffffffffffff1660808173ffffffffffffffffffffffffffffffffffffffff1660601b8152505060805160601c61061f61008060003960008181609e0152818160c20152818161014a01528181610196015261021f015261061f6000f3fe608060405234801561001057600080fd5b50600436106100415760003560e01c80630e769b2b146100465780637c1f3ffe14610064578063ab0ebff414610080575b600080fd5b61004e61009c565b60405161005b919061048b565b60405180910390f35b61007e600480360381019061007991906103d1565b6100c0565b005b61009a6004803603810190610095919061040d565b610194565b005b7f000000000000000000000000000000000000000000000000000000000000000081565b7f000000000000000000000000000000000000000000000000000000000000000073ffffffffffffffffffffffffffffffffffffffff163373ffffffffffffffffffffffffffffffffffffffff1614610145576040517f82b4290000000000000000000000000000000000000000000000000000000000815260040160405180910390fd5b6101907f0000000000000000000000000000000000000000000000000000000000000000828473ffffffffffffffffffffffffffffffffffffffff166102659092919063ffffffff16565b5050565b7f000000000000000000000000000000000000000000000000000000000000000073ffffffffffffffffffffffffffffffffffffffff163373ffffffffffffffffffffffffffffffffffffffff1614610219576040517f82b4290000000000000000000000000000000000000000000000000000000000815260040160405180910390fd5b610262817f000000000000000000000000000000000000000000000000000000000000000073ffffffffffffffffffffffffffffffffffffffff1661030b90919063ffffffff16565b50565b60006040517fa9059cbb00000000000000000000000000000000000000000000000000000000815273ffffffffffffffffffffffffffffffffffffffff841660048201528260248201526000806044836000895af19150506102c68161035e565b610305576040517f08c379a00000000000000000000000000000000000000000000000000000000081526004016102fc906104a6565b60405180910390fd5b50505050565b600080600080600085875af1905080610359576040517f08c379a0000000000000000000000000000000000000000000000000000000008152600401610350906104c6565b60405180910390fd5b505050565b60003d8261037057806000803e806000fd5b806020811461038a576000811461039b57600092506103a0565b816000803e600051151592506103a0565b600192505b5050919050565b6000813590506103b6816105bb565b92915050565b6000813590506103cb816105d2565b92915050565b600080604083850312156103e457600080fd5b60006103f2858286016103a7565b9250506020610403858286016103bc565b9150509250929050565b60006020828403121561041f57600080fd5b600061042d848285016103bc565b91505092915050565b61043f81610545565b82525050565b6000610452600f836104e6565b915061045d82610569565b602082019050919050565b60006104756013836104e6565b915061048082610592565b602082019050919050565b60006020820190506104a06000830184610436565b92915050565b600060208201905081810360008301526104bf81610445565b9050919050565b600060208201905081810360008301526104df81610468565b9050919050565b600082825260208201905092915050565b60006105028261051b565b9050919050565b6000610514826104f7565b9050919050565b600073ffffffffffffffffffffffffffffffffffffffff82169050919050565b6000819050919050565b600061055082610557565b9050919050565b60006105628261051b565b9050919050565b7f5452414e534645525f4641494c45440000000000000000000000000000000000600082015250565b7f4554485f5452414e534645525f4641494c454400000000000000000000000000600082015250565b6105c481610509565b81146105cf57600080fd5b50565b6105db8161053b565b81146105e657600080fd5b5056fea26469706673582212203f6b702ba23745ed2fcb2c77192248253b8205d0e51c8ada030b16535c2bab9764736f6c63430008040033",
  "devdoc": {
    "author": "0xSplits <will@0xSplits.xyz>",
    "details": "Split recipients, ownerships, and keeper fees are stored onchain as calldata & re-passed as args / validated via hashing when needed. Each split gets its own address & proxy for maximum composability with other contracts onchain. For these proxies, we extended EIP-1167 Minimal Proxy Contract to avoid `DELEGATECALL` inside `receive()` to accept hard gas-capped `sends` & `transfers`.",
    "errors": {
      "InvalidNewController(address)": [
        {
          "params": {
            "newController": "Invalid new controller"
          }
        }
      ],
      "InvalidSplit__AccountsAndAllocationsMismatch(uint256,uint256)": [
        {
          "params": {
            "accountsLength": "Length of accounts array",
            "allocationsLength": "Length of percentAllocations array"
          }
        }
      ],
      "InvalidSplit__AccountsOutOfOrder(uint256)": [
        {
          "params": {
            "index": "Index of out-of-order account"
          }
        }
      ],
      "InvalidSplit__AllocationMustBePositive(uint256)": [
        {
          "params": {
            "index": "Index of zero percentAllocation"
          }
        }
      ],
      "InvalidSplit__InvalidAllocationsSum(uint32)": [
        {
          "params": {
            "allocationsSum": "Sum of percentAllocations array"
          }
        }
      ],
      "InvalidSplit__InvalidDistributionFee(uint32)": [
        {
          "params": {
            "distributionFee": "Invalid distributionFee amount"
          }
        }
      ],
      "InvalidSplit__InvalidHash(bytes32)": [
        {
          "params": {
            "hash": "Invalid hash"
          }
        }
      ],
      "InvalidSplit__TooFewAccounts(uint256)": [
        {
          "params": {
            "accountsLength": "Length of accounts array"
          }
        }
      ],
      "Unauthorized(address)": [
        {
          "params": {
            "sender": "Transaction sender"
          }
        }
      ]
    },
    "kind": "dev",
    "methods": {
      "acceptControl(address)": {
        "params": {
          "split": "Address of mutable split to accept control transfer for"
        }
      },
      "cancelControlTransfer(address)": {
        "params": {
          "split": "Address of mutable split to cancel control transfer for"
        }
      },
      "createSplit(address[],uint32[],uint32,address)": {
        "params": {
          "accounts": "Ordered, unique list of addresses with ownership in the split",
          "controller": "Controlling address (0x0 if immutable)",
          "distributionFee": "Keeper fee paid by split to cover gas costs of distribution",
          "percentAllocations": "Percent allocations associated with each address"
        },
        "returns": {
          "split": "Address of newly created split"
        }
      },
      "distributeERC20(address,address,address[],uint32[],uint32,address)": {
        "details": "`accounts`, `percentAllocations`, and `distributionFee` are verified by hashing  & comparing to the hash in storage associated with split `split`pernicious ERC20s may cause overflow in this function inside  _scaleAmountByPercentage, but results do not affect ETH & other ERC20 balances",
        "params": {
          "accounts": "Ordered, unique list of addresses with ownership in the split",
          "distributionAddress": "Address to pay `distributionFee` to",
          "distributionFee": "Keeper fee paid by split to cover gas costs of distribution",
          "percentAllocations": "Percent allocations associated with each address",
          "split": "Address of split to distribute balance for",
          "token": "Address of ERC20 to distribute balance for"
        }
      },
      "distributeETH(address,address[],uint32[],uint32,address)": {
        "details": "`accounts`, `percentAllocations`, and `distributionFee` are verified by hashing  & comparing to the hash in storage associated with split `split`",
        "params": {
          "accounts": "Ordered, unique list of addresses with ownership in the split",
          "distributionAddress": "Address to pay `distributionFee` to",
          "distributionFee": "Keeper fee paid by split to cover gas costs of distribution",
          "percentAllocations": "Percent allocations associated with each address",
          "split": "Address of split to distribute balance for"
        }
      },
      "getController(address)": {
        "params": {
          "split": "Split to return controller for"
        },
        "returns": {
          "_0": "Split's controller"
        }
      },
      "getERC20Balance(address,address)": {
        "params": {
          "account": "Account to return ERC20 `token` balance for",
          "token": "Token to return balance for"
        },
        "returns": {
          "_0": "Account's balance of `token`"
        }
      },
      "getETHBalance(address)": {
        "params": {
          "account": "Account to return ETH balance for"
        },
        "returns": {
          "_0": "Account's balance of ETH"
        }
      },
      "getHash(address)": {
        "params": {
          "split": "Split to return hash for"
        },
        "returns": {
          "_0": "Split's hash"
        }
      },
      "getNewPotentialController(address)": {
        "params": {
          "split": "Split to return newPotentialController for"
        },
        "returns": {
          "_0": "Split's newPotentialController"
        }
      },
      "makeSplitImmutable(address)": {
        "params": {
          "split": "Address of mutable split to turn immutable"
        }
      },
      "predictImmutableSplitAddress(address[],uint32[],uint32)": {
        "params": {
          "accounts": "Ordered, unique list of addresses with ownership in the split",
          "distributionFee": "Keeper fee paid by split to cover gas costs of distribution",
          "percentAllocations": "Percent allocations associated with each address"
        },
        "returns": {
          "split": "Predicted address of such an immutable split"
        }
      },
      "transferControl(address,address)": {
        "details": "Two-step control transfer inspired by [dharma](https://github.com/dharma-eng/dharma-smart-wallet/blob/master/contracts/helpers/TwoStepOwnable.sol)",
        "params": {
          "newController": "Address to begin transferring control to",
          "split": "Address of mutable split to transfer control for"
        }
      },
      "updateSplit(address,address[],uint32[],uint32)": {
        "params": {
          "accounts": "Ordered, unique list of addresses with ownership in the split",
          "distributionFee": "Keeper fee paid by split to cover gas costs of distribution",
          "percentAllocations": "Percent allocations associated with each address",
          "split": "Address of mutable split to update"
        }
      },
      "withdraw(address,bool,address[])": {
        "params": {
          "account": "Address to withdraw on behalf of",
          "eth": "Bool of whether to withdraw ETH",
          "tokens": "Addresses of ERC20s to withdraw for"
        }
      }
    },
    "title": "SplitMain",
    "version": 1
  },
  "userdoc": {
    "errors": {
      "Create2Error()": [
        {
          "notice": "create2 opcode failed"
        }
      ],
      "CreateError()": [
        {
          "notice": "create opcode failed"
        }
      ],
      "InvalidNewController(address)": [
        {
          "notice": "Invalid new controlling address `newController` for mutable split"
        }
      ],
      "InvalidSplit__AccountsAndAllocationsMismatch(uint256,uint256)": [
        {
          "notice": "Array lengths of accounts & percentAllocations don't match (`accountsLength` != `allocationsLength`)"
        }
      ],
      "InvalidSplit__AccountsOutOfOrder(uint256)": [
        {
          "notice": "Invalid accounts ordering at `index`"
        }
      ],
      "InvalidSplit__AllocationMustBePositive(uint256)": [
        {
          "notice": "Invalid percentAllocation of zero at `index`"
        }
      ],
      "InvalidSplit__InvalidAllocationsSum(uint32)": [
        {
          "notice": "Invalid percentAllocations sum `allocationsSum` must equal `PERCENTAGE_SCALE`"
        }
      ],
      "InvalidSplit__InvalidDistributionFee(uint32)": [
        {
          "notice": "Invalid distributionFee `distributionFee` cannot be greater than 10% (1e5)"
        }
      ],
      "InvalidSplit__InvalidHash(bytes32)": [
        {
          "notice": "Invalid hash `hash` from split data (accounts, percentAllocations, distributionFee)"
        }
      ],
      "InvalidSplit__TooFewAccounts(uint256)": [
        {
          "notice": "Invalid number of accounts `accountsLength`, must have at least 2"
        }
      ],
      "Unauthorized(address)": [
        {
          "notice": "Unauthorized sender `sender`"
        }
      ]
    },
    "events": {
      "CancelControlTransfer(address)": {
        "notice": "emitted after each canceled split control transfer"
      },
      "ControlTransfer(address,address,address)": {
        "notice": "emitted after each successful split control transfer"
      },
      "CreateSplit(address)": {
        "notice": "emitted after each successful split creation"
      },
      "DistributeERC20(address,address,uint256,address)": {
        "notice": "emitted after each successful ERC20 balance split"
      },
      "DistributeETH(address,uint256,address)": {
        "notice": "emitted after each successful ETH balance split"
      },
      "InitiateControlTransfer(address,address)": {
        "notice": "emitted after each initiated split control transfer"
      },
      "UpdateSplit(address)": {
        "notice": "emitted after each successful split update"
      },
      "Withdrawal(address,bool,address[],uint256[])": {
        "notice": "emitted after each successful withdrawal"
      }
    },
    "kind": "user",
    "methods": {
      "PERCENTAGE_SCALE()": {
        "notice": "constant to scale uints into percentages (1e6 == 100%)"
      },
      "acceptControl(address)": {
        "notice": "Accepts transfer of the controlling address of mutable split `split`"
      },
      "cancelControlTransfer(address)": {
        "notice": "Cancels transfer of the controlling address of mutable split `split`"
      },
      "constructor": {
        "notice": "CONSTRUCTOR"
      },
      "createSplit(address[],uint32[],uint32,address)": {
        "notice": "Creates a new split with recipients `accounts` with ownerships `percentAllocations`, a keeper fee for splitting of `distributionFee` and the controlling address `controller`"
      },
      "distributeERC20(address,address,address[],uint32[],uint32,address)": {
        "notice": "Distributes the ERC20 `token` balance for split `split`"
      },
      "distributeETH(address,address[],uint32[],uint32,address)": {
        "notice": "Distributes the ETH balance for split `split`"
      },
      "getController(address)": {
        "notice": "Returns the current controller of split `split`"
      },
      "getERC20Balance(address,address)": {
        "notice": "Returns the ERC20 balance of token `token` for account `account`"
      },
      "getETHBalance(address)": {
        "notice": "Returns the current ETH balance of account `account`"
      },
      "getHash(address)": {
        "notice": "Returns the current hash of split `split`"
      },
      "getNewPotentialController(address)": {
        "notice": "Returns the current newPotentialController of split `split`"
      },
      "makeSplitImmutable(address)": {
        "notice": "Turns mutable split `split` immutable"
      },
      "predictImmutableSplitAddress(address[],uint32[],uint32)": {
        "notice": "Predicts the address for an immutable split created with recipients `accounts` with ownerships `percentAllocations` and a keeper fee for splitting of `distributionFee`"
      },
      "transferControl(address,address)": {
        "notice": "Begins transfer of the controlling address of mutable split `split` to `newController`"
      },
      "updateSplit(address,address[],uint32[],uint32)": {
        "notice": "Updates an existing split with recipients `accounts` with ownerships `percentAllocations` and a keeper fee for splitting of `distributionFee`"
      },
      "walletImplementation()": {
        "notice": "address of wallet implementation for split proxies"
      },
      "withdraw(address,bool,address[])": {
        "notice": "Withdraw ETH &/ ERC20 balances for account `account`"
      }
    },
    "notice": "A composable and gas-efficient protocol for deploying splitter contracts.",
    "version": 1
  },
  "storageLayout": {
    "storage": [
      {
        "astId": 784,
        "contract": "contracts/0xSplits/SplitMain.sol:SplitMain",
        "label": "ethBalances",
        "offset": 0,
        "slot": "0",
        "type": "t_mapping(t_address,t_uint256)"
      },
      {
        "astId": 792,
        "contract": "contracts/0xSplits/SplitMain.sol:SplitMain",
        "label": "erc20Balances",
        "offset": 0,
        "slot": "1",
        "type": "t_mapping(t_contract(ERC20)394,t_mapping(t_address,t_uint256))"
      },
      {
        "astId": 798,
        "contract": "contracts/0xSplits/SplitMain.sol:SplitMain",
        "label": "splits",
        "offset": 0,
        "slot": "2",
        "type": "t_mapping(t_address,t_struct(Split)767_storage)"
      }
    ],
    "types": {
      "t_address": {
        "encoding": "inplace",
        "label": "address",
        "numberOfBytes": "20"
      },
      "t_bytes32": {
        "encoding": "inplace",
        "label": "bytes32",
        "numberOfBytes": "32"
      },
      "t_contract(ERC20)394": {
        "encoding": "inplace",
        "label": "contract ERC20",
        "numberOfBytes": "20"
      },
      "t_mapping(t_address,t_struct(Split)767_storage)": {
        "encoding": "mapping",
        "key": "t_address",
        "label": "mapping(address => struct SplitMain.Split)",
        "numberOfBytes": "32",
        "value": "t_struct(Split)767_storage"
      },
      "t_mapping(t_address,t_uint256)": {
        "encoding": "mapping",
        "key": "t_address",
        "label": "mapping(address => uint256)",
        "numberOfBytes": "32",
        "value": "t_uint256"
      },
      "t_mapping(t_contract(ERC20)394,t_mapping(t_address,t_uint256))": {
        "encoding": "mapping",
        "key": "t_contract(ERC20)394",
        "label": "mapping(contract ERC20 => mapping(address => uint256))",
        "numberOfBytes": "32",
        "value": "t_mapping(t_address,t_uint256)"
      },
      "t_struct(Split)767_storage": {
        "encoding": "inplace",
        "label": "struct SplitMain.Split",
        "members": [
          {
            "astId": 762,
            "contract": "contracts/0xSplits/SplitMain.sol:SplitMain",
            "label": "hash",
            "offset": 0,
            "slot": "0",
            "type": "t_bytes32"
          },
          {
            "astId": 764,
            "contract": "contracts/0xSplits/SplitMain.sol:SplitMain",
            "label": "controller",
            "offset": 0,
            "slot": "1",
            "type": "t_address"
          },
          {
            "astId": 766,
            "contract": "contracts/0xSplits/SplitMain.sol:SplitMain",
            "label": "newPotentialController",
            "offset": 0,
            "slot": "2",
            "type": "t_address"
          }
        ],
        "numberOfBytes": "96"
      },
      "t_uint256": {
        "encoding": "inplace",
        "label": "uint256",
        "numberOfBytes": "32"
      }
    }
  }
}